{
  "_format": "hh-sol-artifact-1",
  "contractName": "RSU",
  "sourceName": "contracts/RSU.sol",
  "abi": [
    {
      "inputs": [],
      "stateMutability": "nonpayable",
      "type": "constructor"
    },
    {
      "inputs": [
        {
          "internalType": "string",
          "name": "message",
          "type": "string"
        }
      ],
      "name": "addMsg",
      "outputs": [],
      "stateMutability": "nonpayable",
      "type": "function"
    },
    {
      "inputs": [
        {
          "internalType": "address",
          "name": "_addr",
          "type": "address"
        }
      ],
      "name": "addVehicle",
      "outputs": [],
      "stateMutability": "nonpayable",
      "type": "function"
    },
    {
      "inputs": [
        {
          "internalType": "string",
          "name": "message",
          "type": "string"
        }
      ],
      "name": "getMessageId",
      "outputs": [
        {
          "internalType": "uint256",
          "name": "",
          "type": "uint256"
        }
      ],
      "stateMutability": "view",
      "type": "function"
    },
    {
      "inputs": [
        {
          "internalType": "address",
          "name": "_senderAddress",
          "type": "address"
        }
      ],
      "name": "getTrustValue",
      "outputs": [
        {
          "internalType": "int256",
          "name": "",
          "type": "int256"
        }
      ],
      "stateMutability": "view",
      "type": "function"
    },
    {
      "inputs": [
        {
          "internalType": "address",
          "name": "_addr",
          "type": "address"
        }
      ],
      "name": "getVehicleId",
      "outputs": [
        {
          "internalType": "uint256",
          "name": "",
          "type": "uint256"
        }
      ],
      "stateMutability": "view",
      "type": "function"
    },
    {
      "inputs": [
        {
          "internalType": "address",
          "name": "_senderAddress",
          "type": "address"
        }
      ],
      "name": "getVehicleInfo",
      "outputs": [
        {
          "internalType": "address",
          "name": "",
          "type": "address"
        },
        {
          "internalType": "int256",
          "name": "",
          "type": "int256"
        },
        {
          "internalType": "bool",
          "name": "",
          "type": "bool"
        }
      ],
      "stateMutability": "view",
      "type": "function"
    },
    {
      "inputs": [
        {
          "internalType": "uint256",
          "name": "",
          "type": "uint256"
        }
      ],
      "name": "msgs",
      "outputs": [
        {
          "internalType": "string",
          "name": "",
          "type": "string"
        }
      ],
      "stateMutability": "view",
      "type": "function"
    },
    {
      "inputs": [],
      "name": "numberOfMessages",
      "outputs": [
        {
          "internalType": "uint256",
          "name": "",
          "type": "uint256"
        }
      ],
      "stateMutability": "view",
      "type": "function"
    },
    {
      "inputs": [
        {
          "components": [
            {
              "internalType": "uint256",
              "name": "vId",
              "type": "uint256"
            },
            {
              "internalType": "int256",
              "name": "rating",
              "type": "int256"
            }
          ],
          "internalType": "struct RSU.ratingRequest[]",
          "name": "inputRatings",
          "type": "tuple[]"
        },
        {
          "internalType": "string",
          "name": "message",
          "type": "string"
        }
      ],
      "name": "sendRatings",
      "outputs": [],
      "stateMutability": "nonpayable",
      "type": "function"
    }
  ],
  "bytecode": "0x60806040523480156200001157600080fd5b50336000806101000a81548173ffffffffffffffffffffffffffffffffffffffff021916908373ffffffffffffffffffffffffffffffffffffffff160217905550600260405180606001604052803373ffffffffffffffffffffffffffffffffffffffff1681526020016000815260200160011515815250908060018154018082558091505060019003906000526020600020906003020160009091909190915060008201518160000160006101000a81548173ffffffffffffffffffffffffffffffffffffffff021916908373ffffffffffffffffffffffffffffffffffffffff1602179055506020820151816001015560408201518160020160006101000a81548160ff02191690831515021790555050506001600460405162000137906200065b565b908152602001604051809103902081905550600380600181540180825580915050600190039060005260206000200160006040518060400160405280600b81526020017f74726166666963206a616d00000000000000000000000000000000000000000081525090919091509080519060200190620001b8929190620004aa565b5060026004604051620001cb9062000689565b908152602001604051809103902081905550600380600181540180825580915050600190039060005260206000200160006040518060400160405280600881526020017f6163636964656e74000000000000000000000000000000000000000000000000815250909190915090805190602001906200024c929190620004aa565b50600360046040516200025f9062000644565b908152602001604051809103902081905550600380600181540180825580915050600190039060005260206000200160006040518060400160405280601181526020017f636f6e737472756374696f6e20776f726b00000000000000000000000000000081525090919091509080519060200190620002e0929190620004aa565b50600480604051620002f29062000672565b908152602001604051809103902081905550600380600181540180825580915050600190039060005260206000200160006040518060400160405280600c81526020017f726f61642064616d6167656400000000000000000000000000000000000000008152509091909150908051906020019062000373929190620004aa565b50600560046040516200038690620006a0565b908152602001604051809103902081905550600380600181540180825580915050600190039060005260206000200160006040518060400160405280600481526020017f73616665000000000000000000000000000000000000000000000000000000008152509091909150908051906020019062000407929190620004aa565b50600660046040516200041a90620006b7565b908152602001604051809103902081905550600380600181540180825580915050600190039060005260206000200160006040518060400160405280600981526020017f726564206c696768740000000000000000000000000000000000000000000000815250909190915090805190602001906200049b929190620004aa565b50600760018190555062000834565b828054620004b890620006d9565b90600052602060002090601f016020900481019282620004dc576000855562000528565b82601f10620004f757805160ff191683800117855562000528565b8280016001018555821562000528579182015b82811115620005275782518255916020019190600101906200050a565b5b5090506200053791906200053b565b5090565b5b80821115620005565760008160009055506001016200053c565b5090565b600062000569601183620006ce565b915062000576826200073e565b601182019050919050565b600062000590600b83620006ce565b91506200059d8262000767565b600b82019050919050565b6000620005b7600c83620006ce565b9150620005c48262000790565b600c82019050919050565b6000620005de600883620006ce565b9150620005eb82620007b9565b600882019050919050565b600062000605600483620006ce565b91506200061282620007e2565b600482019050919050565b60006200062c600983620006ce565b915062000639826200080b565b600982019050919050565b600062000651826200055a565b9150819050919050565b6000620006688262000581565b9150819050919050565b60006200067f82620005a8565b9150819050919050565b60006200069682620005cf565b9150819050919050565b6000620006ad82620005f6565b9150819050919050565b6000620006c4826200061d565b9150819050919050565b600081905092915050565b60006002820490506001821680620006f257607f821691505b602082108114156200070957620007086200070f565b5b50919050565b7f4e487b7100000000000000000000000000000000000000000000000000000000600052602260045260246000fd5b7f636f6e737472756374696f6e20776f726b000000000000000000000000000000600082015250565b7f74726166666963206a616d000000000000000000000000000000000000000000600082015250565b7f726f61642064616d616765640000000000000000000000000000000000000000600082015250565b7f6163636964656e74000000000000000000000000000000000000000000000000600082015250565b7f7361666500000000000000000000000000000000000000000000000000000000600082015250565b7f726564206c696768740000000000000000000000000000000000000000000000600082015250565b61233480620008446000396000f3fe608060405234801561001057600080fd5b50600436106100935760003560e01c806384628616116100665780638462861614610144578063ad9aedb814610160578063badc00611461017c578063ce76a05e146101ae578063fbda68e2146101de57610093565b8063320799551461009857806334f49c76146100c85780633f1aafe3146100f857806360de974414610128575b600080fd5b6100b260048036038101906100ad9190611891565b6101fc565b6040516100bf9190611abe565b60405180910390f35b6100e260048036038101906100dd9190611850565b6102a8565b6040516100ef9190611bc0565b60405180910390f35b610112600480360381019061010d91906117bb565b6102d0565b60405161011f9190611bc0565b60405180910390f35b610142600480360381019061013d91906117e4565b61048c565b005b61015e600480360381019061015991906117bb565b610be3565b005b61017a60048036038101906101759190611850565b610e87565b005b610196600480360381019061019191906117bb565b610ff3565b6040516101a593929190611a6c565b60405180910390f35b6101c860048036038101906101c391906117bb565b611299565b6040516101d59190611aa3565b60405180910390f35b6101e6611589565b6040516101f39190611bc0565b60405180910390f35b6003818154811061020c57600080fd5b90600052602060002001600091509050805461022790611fe1565b80601f016020809104026020016040519081016040528092919081815260200182805461025390611fe1565b80156102a05780601f10610275576101008083540402835291602001916102a0565b820191906000526020600020905b81548152906001019060200180831161028357829003601f168201915b505050505081565b60006004826040516102ba9190611a55565b9081526020016040518091039020549050919050565b60008160011515600560008373ffffffffffffffffffffffffffffffffffffffff1673ffffffffffffffffffffffffffffffffffffffff16815260200190815260200160002060009054906101000a900460ff16151514610366576040517f08c379a000000000000000000000000000000000000000000000000000000000815260040161035d90611b20565b60405180910390fd5b600015156002600660008473ffffffffffffffffffffffffffffffffffffffff1673ffffffffffffffffffffffffffffffffffffffff16815260200190815260200160002054815481106103e3577f4e487b7100000000000000000000000000000000000000000000000000000000600052603260045260246000fd5b906000526020600020906003020160020160009054906101000a900460ff16151514610444576040517f08c379a000000000000000000000000000000000000000000000000000000000815260040161043b90611b40565b60405180910390fd5b600660008473ffffffffffffffffffffffffffffffffffffffff1673ffffffffffffffffffffffffffffffffffffffff16815260200190815260200160002054915050919050565b3360011515600560008373ffffffffffffffffffffffffffffffffffffffff1673ffffffffffffffffffffffffffffffffffffffff16815260200190815260200160002060009054906101000a900460ff16151514610520576040517f08c379a000000000000000000000000000000000000000000000000000000000815260040161051790611b20565b60405180910390fd5b600015156002600660008473ffffffffffffffffffffffffffffffffffffffff1673ffffffffffffffffffffffffffffffffffffffff168152602001908152602001600020548154811061059d577f4e487b7100000000000000000000000000000000000000000000000000000000600052603260045260246000fd5b906000526020600020906003020160020160009054906101000a900460ff161515146105fe576040517f08c379a00000000000000000000000000000000000000000000000000000000081526004016105f590611b40565b60405180910390fd5b8160006004826040516106119190611a55565b90815260200160405180910390205411610660576040517f08c379a000000000000000000000000000000000000000000000000000000000815260040161065790611b00565b60405180910390fd5b6001546004826040516106739190611a55565b908152602001604051809103902054106106c2576040517f08c379a00000000000000000000000000000000000000000000000000000000081526004016106b990611b00565b60405180910390fd5b60008060005b86518110156109a357600087828151811061070c577f4e487b7100000000000000000000000000000000000000000000000000000000600052603260045260246000fd5b602002602001015160000151148061076c575060028054905087828151811061075e577f4e487b7100000000000000000000000000000000000000000000000000000000600052603260045260246000fd5b602002602001015160000151115b156107c15760008782815181106107ac577f4e487b7100000000000000000000000000000000000000000000000000000000600052603260045260246000fd5b60200260200101516020018181525050610990565b60028782815181106107fc577f4e487b7100000000000000000000000000000000000000000000000000000000600052603260045260246000fd5b6020026020010151600001518154811061083f577f4e487b7100000000000000000000000000000000000000000000000000000000600052603260045260246000fd5b906000526020600020906003020160020160009054906101000a900460ff16156108b357600087828151811061089e577f4e487b7100000000000000000000000000000000000000000000000000000000600052603260045260246000fd5b60200260200101516020018181525050610990565b60018782815181106108ee577f4e487b7100000000000000000000000000000000000000000000000000000000600052603260045260246000fd5b602002602001015160200151141561091357828061090b90612044565b93505061098f565b7fffffffffffffffffffffffffffffffffffffffffffffffffffffffffffffffff87828151811061096d577f4e487b7100000000000000000000000000000000000000000000000000000000600052603260045260246000fd5b602002602001015160200151141561098e57818061098a90612044565b9250505b5b5b808061099b9061208d565b9150506106c8565b5060005b8651811015610bda5760008782815181106109eb577f4e487b7100000000000000000000000000000000000000000000000000000000600052603260045260246000fd5b6020026020010151602001511415610a0257610bc7565b6000878281518110610a3d577f4e487b7100000000000000000000000000000000000000000000000000000000600052603260045260246000fd5b602002602001015160000151905060008385610a599190611e85565b905080898481518110610a95577f4e487b7100000000000000000000000000000000000000000000000000000000600052603260045260246000fd5b602002602001015160200151610aab9190611d6e565b60028381548110610ae5577f4e487b7100000000000000000000000000000000000000000000000000000000600052603260045260246000fd5b90600052602060002090600302016001016000828254610b059190611c84565b92505081905550600060028381548110610b48577f4e487b7100000000000000000000000000000000000000000000000000000000600052603260045260246000fd5b90600052602060002090600302016001015413610bc457600160028381548110610b9b577f4e487b7100000000000000000000000000000000000000000000000000000000600052603260045260246000fd5b906000526020600020906003020160020160006101000a81548160ff0219169083151502179055505b50505b8080610bd29061208d565b9150506109a7565b50505050505050565b60008054906101000a900473ffffffffffffffffffffffffffffffffffffffff1673ffffffffffffffffffffffffffffffffffffffff163373ffffffffffffffffffffffffffffffffffffffff1614610c71576040517f08c379a0000000000000000000000000000000000000000000000000000000008152600401610c6890611ba0565b60405180910390fd5b60001515600560008373ffffffffffffffffffffffffffffffffffffffff1673ffffffffffffffffffffffffffffffffffffffff16815260200190815260200160002060009054906101000a900460ff16151514610d04576040517f08c379a0000000000000000000000000000000000000000000000000000000008152600401610cfb90611b60565b60405180910390fd5b6001600560008373ffffffffffffffffffffffffffffffffffffffff1673ffffffffffffffffffffffffffffffffffffffff16815260200190815260200160002060006101000a81548160ff021916908315150217905550600260405180606001604052808373ffffffffffffffffffffffffffffffffffffffff168152602001600a815260200160001515815250908060018154018082558091505060019003906000526020600020906003020160009091909190915060008201518160000160006101000a81548173ffffffffffffffffffffffffffffffffffffffff021916908373ffffffffffffffffffffffffffffffffffffffff1602179055506020820151816001015560408201518160020160006101000a81548160ff02191690831515021790555050506001600280549050610e419190611f19565b600660008373ffffffffffffffffffffffffffffffffffffffff1673ffffffffffffffffffffffffffffffffffffffff1681526020019081526020016000208190555050565b60008054906101000a900473ffffffffffffffffffffffffffffffffffffffff1673ffffffffffffffffffffffffffffffffffffffff163373ffffffffffffffffffffffffffffffffffffffff1614610f15576040517f08c379a0000000000000000000000000000000000000000000000000000000008152600401610f0c90611ba0565b60405180910390fd5b6000600482604051610f279190611a55565b90815260200160405180910390205414610f76576040517f08c379a0000000000000000000000000000000000000000000000000000000008152600401610f6d90611b80565b60405180910390fd5b600154600482604051610f899190611a55565b908152602001604051809103902081905550600381908060018154018082558091505060019003906000526020600020016000909190919091509080519060200190610fd692919061158f565b506001806000828254610fe99190611d18565b9250508190555050565b60008060008360011515600560008373ffffffffffffffffffffffffffffffffffffffff1673ffffffffffffffffffffffffffffffffffffffff16815260200190815260200160002060009054906101000a900460ff1615151461108c576040517f08c379a000000000000000000000000000000000000000000000000000000000815260040161108390611b20565b60405180910390fd5b600015156002600660008473ffffffffffffffffffffffffffffffffffffffff1673ffffffffffffffffffffffffffffffffffffffff1681526020019081526020016000205481548110611109577f4e487b7100000000000000000000000000000000000000000000000000000000600052603260045260246000fd5b906000526020600020906003020160020160009054906101000a900460ff1615151461116a576040517f08c379a000000000000000000000000000000000000000000000000000000000815260040161116190611b40565b60405180910390fd5b60006002600660008873ffffffffffffffffffffffffffffffffffffffff1673ffffffffffffffffffffffffffffffffffffffff16815260200190815260200160002054815481106111e5577f4e487b7100000000000000000000000000000000000000000000000000000000600052603260045260246000fd5b90600052602060002090600302016040518060600160405290816000820160009054906101000a900473ffffffffffffffffffffffffffffffffffffffff1673ffffffffffffffffffffffffffffffffffffffff1673ffffffffffffffffffffffffffffffffffffffff168152602001600182015481526020016002820160009054906101000a900460ff161515151581525050905080600001518160200151826040015194509450945050509193909250565b60008160011515600560008373ffffffffffffffffffffffffffffffffffffffff1673ffffffffffffffffffffffffffffffffffffffff16815260200190815260200160002060009054906101000a900460ff1615151461132f576040517f08c379a000000000000000000000000000000000000000000000000000000000815260040161132690611b20565b60405180910390fd5b600015156002600660008473ffffffffffffffffffffffffffffffffffffffff1673ffffffffffffffffffffffffffffffffffffffff16815260200190815260200160002054815481106113ac577f4e487b7100000000000000000000000000000000000000000000000000000000600052603260045260246000fd5b906000526020600020906003020160020160009054906101000a900460ff1615151461140d576040517f08c379a000000000000000000000000000000000000000000000000000000000815260040161140490611b40565b60405180910390fd5b60011515600560003373ffffffffffffffffffffffffffffffffffffffff1673ffffffffffffffffffffffffffffffffffffffff16815260200190815260200160002060009054906101000a900460ff16151514806114b7575060008054906101000a900473ffffffffffffffffffffffffffffffffffffffff1673ffffffffffffffffffffffffffffffffffffffff163373ffffffffffffffffffffffffffffffffffffffff16145b6114f6576040517f08c379a00000000000000000000000000000000000000000000000000000000081526004016114ed90611ae0565b60405180910390fd5b6002600660008573ffffffffffffffffffffffffffffffffffffffff1673ffffffffffffffffffffffffffffffffffffffff168152602001908152602001600020548154811061156f577f4e487b7100000000000000000000000000000000000000000000000000000000600052603260045260246000fd5b906000526020600020906003020160010154915050919050565b60015481565b82805461159b90611fe1565b90600052602060002090601f0160209004810192826115bd5760008555611604565b82601f106115d657805160ff1916838001178555611604565b82800160010185558215611604579182015b828111156116035782518255916020019190600101906115e8565b5b5090506116119190611615565b5090565b5b8082111561162e576000816000905550600101611616565b5090565b600061164561164084611c00565b611bdb565b9050808382526020820190508285604086028201111561166457600080fd5b60005b85811015611694578161167a888261175a565b845260208401935060408301925050600181019050611667565b5050509392505050565b60006116b16116ac84611c2c565b611bdb565b9050828152602081018484840111156116c957600080fd5b6116d4848285611f9f565b509392505050565b6000813590506116eb816122b9565b92915050565b600082601f83011261170257600080fd5b8135611712848260208601611632565b91505092915050565b60008135905061172a816122d0565b92915050565b600082601f83011261174157600080fd5b813561175184826020860161169e565b91505092915050565b60006040828403121561176c57600080fd5b6117766040611bdb565b90506000611786848285016117a6565b600083015250602061179a8482850161171b565b60208301525092915050565b6000813590506117b5816122e7565b92915050565b6000602082840312156117cd57600080fd5b60006117db848285016116dc565b91505092915050565b600080604083850312156117f757600080fd5b600083013567ffffffffffffffff81111561181157600080fd5b61181d858286016116f1565b925050602083013567ffffffffffffffff81111561183a57600080fd5b61184685828601611730565b9150509250929050565b60006020828403121561186257600080fd5b600082013567ffffffffffffffff81111561187c57600080fd5b61188884828501611730565b91505092915050565b6000602082840312156118a357600080fd5b60006118b1848285016117a6565b91505092915050565b6118c381611f4d565b82525050565b6118d281611f5f565b82525050565b6118e181611f6b565b82525050565b60006118f282611c5d565b6118fc8185611c68565b935061190c818560208601611fae565b61191581612163565b840191505092915050565b600061192b82611c5d565b6119358185611c79565b9350611945818560208601611fae565b80840191505092915050565b600061195e602083611c68565b915061196982612174565b602082019050919050565b6000611981602b83611c68565b915061198c8261219d565b604082019050919050565b60006119a4601983611c68565b91506119af826121ec565b602082019050919050565b60006119c7601483611c68565b91506119d282612215565b602082019050919050565b60006119ea601c83611c68565b91506119f58261223e565b602082019050919050565b6000611a0d601b83611c68565b9150611a1882612267565b602082019050919050565b6000611a30601483611c68565b9150611a3b82612290565b602082019050919050565b611a4f81611f95565b82525050565b6000611a618284611920565b915081905092915050565b6000606082019050611a8160008301866118ba565b611a8e60208301856118d8565b611a9b60408301846118c9565b949350505050565b6000602082019050611ab860008301846118d8565b92915050565b60006020820190508181036000830152611ad881846118e7565b905092915050565b60006020820190508181036000830152611af981611951565b9050919050565b60006020820190508181036000830152611b1981611974565b9050919050565b60006020820190508181036000830152611b3981611997565b9050919050565b60006020820190508181036000830152611b59816119ba565b9050919050565b60006020820190508181036000830152611b79816119dd565b9050919050565b60006020820190508181036000830152611b9981611a00565b9050919050565b60006020820190508181036000830152611bb981611a23565b9050919050565b6000602082019050611bd56000830184611a46565b92915050565b6000611be5611bf6565b9050611bf18282612013565b919050565b6000604051905090565b600067ffffffffffffffff821115611c1b57611c1a612134565b5b602082029050602081019050919050565b600067ffffffffffffffff821115611c4757611c46612134565b5b611c5082612163565b9050602081019050919050565b600081519050919050565b600082825260208201905092915050565b600081905092915050565b6000611c8f82611f6b565b9150611c9a83611f6b565b9250817f7fffffffffffffffffffffffffffffffffffffffffffffffffffffffffffffff03831360008312151615611cd557611cd46120d6565b5b817f8000000000000000000000000000000000000000000000000000000000000000038312600083121615611d0d57611d0c6120d6565b5b828201905092915050565b6000611d2382611f95565b9150611d2e83611f95565b9250827fffffffffffffffffffffffffffffffffffffffffffffffffffffffffffffffff03821115611d6357611d626120d6565b5b828201905092915050565b6000611d7982611f6b565b9150611d8483611f6b565b9250827f7fffffffffffffffffffffffffffffffffffffffffffffffffffffffffffffff0482116000841360008413161615611dc357611dc26120d6565b5b817f80000000000000000000000000000000000000000000000000000000000000000583126000841260008413161615611e0057611dff6120d6565b5b827f80000000000000000000000000000000000000000000000000000000000000000582126000841360008412161615611e3d57611e3c6120d6565b5b827f7fffffffffffffffffffffffffffffffffffffffffffffffffffffffffffffff0582126000841260008412161615611e7a57611e796120d6565b5b828202905092915050565b6000611e9082611f6b565b9150611e9b83611f6b565b9250827f800000000000000000000000000000000000000000000000000000000000000001821260008412151615611ed657611ed56120d6565b5b827f7fffffffffffffffffffffffffffffffffffffffffffffffffffffffffffffff018213600084121615611f0e57611f0d6120d6565b5b828203905092915050565b6000611f2482611f95565b9150611f2f83611f95565b925082821015611f4257611f416120d6565b5b828203905092915050565b6000611f5882611f75565b9050919050565b60008115159050919050565b6000819050919050565b600073ffffffffffffffffffffffffffffffffffffffff82169050919050565b6000819050919050565b82818337600083830152505050565b60005b83811015611fcc578082015181840152602081019050611fb1565b83811115611fdb576000848401525b50505050565b60006002820490506001821680611ff957607f821691505b6020821081141561200d5761200c612105565b5b50919050565b61201c82612163565b810181811067ffffffffffffffff8211171561203b5761203a612134565b5b80604052505050565b600061204f82611f6b565b91507f7fffffffffffffffffffffffffffffffffffffffffffffffffffffffffffffff821415612082576120816120d6565b5b600182019050919050565b600061209882611f95565b91507fffffffffffffffffffffffffffffffffffffffffffffffffffffffffffffffff8214156120cb576120ca6120d6565b5b600182019050919050565b7f4e487b7100000000000000000000000000000000000000000000000000000000600052601160045260246000fd5b7f4e487b7100000000000000000000000000000000000000000000000000000000600052602260045260246000fd5b7f4e487b7100000000000000000000000000000000000000000000000000000000600052604160045260246000fd5b6000601f19601f8301169050919050565b7f53656e646572206973206e6f7420612076616c6964204964656e746974792121600082015250565b7f4d657373616765206e6f7420766572696669656420627920636f6e6365726e6560008201527f6420617574686f72697479000000000000000000000000000000000000000000602082015250565b7f56656869636c65206e6f74205265676973746572656421212100000000000000600082015250565b7f56656869636c65206973205265766f6b65642121000000000000000000000000600082015250565b7f56656869636c6520416c72656164792052656769737465726564212100000000600082015250565b7f4d65737361676520416c726561647920696e2044617461426173650000000000600082015250565b7f4e6f74205472616e706f72742041646d696e2121000000000000000000000000600082015250565b6122c281611f4d565b81146122cd57600080fd5b50565b6122d981611f6b565b81146122e457600080fd5b50565b6122f081611f95565b81146122fb57600080fd5b5056fea26469706673582212209b8733aa55bf04b2d2efd4a060411eaa82873fa2ee77df2f0f6588e5782f438e64736f6c63430008040033",
  "linkReferences": {},
  "deployedLinkReferences": {}
}