{
  "_format": "hh-sol-artifact-1",
  "contractName": "RSU",
  "sourceName": "contracts/RSU.sol",
  "abi": [
    {
      "inputs": [],
      "stateMutability": "nonpayable",
      "type": "constructor"
    },
    {
      "inputs": [
        {
          "internalType": "string",
          "name": "message",
          "type": "string"
        }
      ],
      "name": "addMsg",
      "outputs": [],
      "stateMutability": "nonpayable",
      "type": "function"
    },
    {
      "inputs": [
        {
          "internalType": "address",
          "name": "_addr",
          "type": "address"
        }
      ],
      "name": "addVehicle",
      "outputs": [],
      "stateMutability": "nonpayable",
      "type": "function"
    },
    {
      "inputs": [
        {
          "internalType": "string",
          "name": "message",
          "type": "string"
        }
      ],
      "name": "getMessageId",
      "outputs": [
        {
          "internalType": "uint256",
          "name": "",
          "type": "uint256"
        }
      ],
      "stateMutability": "view",
      "type": "function"
    },
    {
      "inputs": [
        {
          "internalType": "address",
          "name": "_senderAddress",
          "type": "address"
        }
      ],
      "name": "getTrustValue",
      "outputs": [
        {
          "internalType": "int256",
          "name": "",
          "type": "int256"
        }
      ],
      "stateMutability": "view",
      "type": "function"
    },
    {
      "inputs": [
        {
          "internalType": "address",
          "name": "_addr",
          "type": "address"
        }
      ],
      "name": "getVehicleId",
      "outputs": [
        {
          "internalType": "uint256",
          "name": "",
          "type": "uint256"
        }
      ],
      "stateMutability": "view",
      "type": "function"
    },
    {
      "inputs": [
        {
          "internalType": "address",
          "name": "_senderAddress",
          "type": "address"
        }
      ],
      "name": "getVehicleInfo",
      "outputs": [
        {
          "internalType": "address",
          "name": "",
          "type": "address"
        },
        {
          "internalType": "int256",
          "name": "",
          "type": "int256"
        },
        {
          "internalType": "bool",
          "name": "",
          "type": "bool"
        }
      ],
      "stateMutability": "view",
      "type": "function"
    },
    {
      "inputs": [
        {
          "internalType": "uint256",
          "name": "",
          "type": "uint256"
        }
      ],
      "name": "msgs",
      "outputs": [
        {
          "internalType": "string",
          "name": "",
          "type": "string"
        }
      ],
      "stateMutability": "view",
      "type": "function"
    },
    {
      "inputs": [],
      "name": "numberOfMessages",
      "outputs": [
        {
          "internalType": "uint256",
          "name": "",
          "type": "uint256"
        }
      ],
      "stateMutability": "view",
      "type": "function"
    },
    {
      "inputs": [
        {
          "components": [
            {
              "internalType": "uint256",
              "name": "vId",
              "type": "uint256"
            },
            {
              "internalType": "int256",
              "name": "rating",
              "type": "int256"
            }
          ],
          "internalType": "struct RSU.ratingRequest[]",
          "name": "inputRatings",
          "type": "tuple[]"
        },
        {
          "internalType": "string",
          "name": "message",
          "type": "string"
        }
      ],
      "name": "sendRatings",
      "outputs": [],
      "stateMutability": "nonpayable",
      "type": "function"
    }
  ],
  "bytecode": "0x60806040523480156200001157600080fd5b50336000806101000a81548173ffffffffffffffffffffffffffffffffffffffff021916908373ffffffffffffffffffffffffffffffffffffffff160217905550600260405180606001604052803373ffffffffffffffffffffffffffffffffffffffff1681526020016000815260200160011515815250908060018154018082558091505060019003906000526020600020906003020160009091909190915060008201518160000160006101000a81548173ffffffffffffffffffffffffffffffffffffffff021916908373ffffffffffffffffffffffffffffffffffffffff1602179055506020820151816001015560408201518160020160006101000a81548160ff02191690831515021790555050506001600460405162000137906200065b565b908152602001604051809103902081905550600380600181540180825580915050600190039060005260206000200160006040518060400160405280600b81526020017f74726166666963206a616d00000000000000000000000000000000000000000081525090919091509080519060200190620001b8929190620004aa565b5060026004604051620001cb9062000689565b908152602001604051809103902081905550600380600181540180825580915050600190039060005260206000200160006040518060400160405280600881526020017f6163636964656e74000000000000000000000000000000000000000000000000815250909190915090805190602001906200024c929190620004aa565b50600360046040516200025f9062000644565b908152602001604051809103902081905550600380600181540180825580915050600190039060005260206000200160006040518060400160405280601181526020017f636f6e737472756374696f6e20776f726b00000000000000000000000000000081525090919091509080519060200190620002e0929190620004aa565b50600480604051620002f29062000672565b908152602001604051809103902081905550600380600181540180825580915050600190039060005260206000200160006040518060400160405280600c81526020017f726f61642064616d6167656400000000000000000000000000000000000000008152509091909150908051906020019062000373929190620004aa565b50600560046040516200038690620006a0565b908152602001604051809103902081905550600380600181540180825580915050600190039060005260206000200160006040518060400160405280600481526020017f73616665000000000000000000000000000000000000000000000000000000008152509091909150908051906020019062000407929190620004aa565b50600660046040516200041a90620006b7565b908152602001604051809103902081905550600380600181540180825580915050600190039060005260206000200160006040518060400160405280600981526020017f726564206c696768740000000000000000000000000000000000000000000000815250909190915090805190602001906200049b929190620004aa565b50600760018190555062000834565b828054620004b890620006d9565b90600052602060002090601f016020900481019282620004dc576000855562000528565b82601f10620004f757805160ff191683800117855562000528565b8280016001018555821562000528579182015b82811115620005275782518255916020019190600101906200050a565b5b5090506200053791906200053b565b5090565b5b80821115620005565760008160009055506001016200053c565b5090565b600062000569601183620006ce565b915062000576826200073e565b601182019050919050565b600062000590600b83620006ce565b91506200059d8262000767565b600b82019050919050565b6000620005b7600c83620006ce565b9150620005c48262000790565b600c82019050919050565b6000620005de600883620006ce565b9150620005eb82620007b9565b600882019050919050565b600062000605600483620006ce565b91506200061282620007e2565b600482019050919050565b60006200062c600983620006ce565b915062000639826200080b565b600982019050919050565b600062000651826200055a565b9150819050919050565b6000620006688262000581565b9150819050919050565b60006200067f82620005a8565b9150819050919050565b60006200069682620005cf565b9150819050919050565b6000620006ad82620005f6565b9150819050919050565b6000620006c4826200061d565b9150819050919050565b600081905092915050565b60006002820490506001821680620006f257607f821691505b602082108114156200070957620007086200070f565b5b50919050565b7f4e487b7100000000000000000000000000000000000000000000000000000000600052602260045260246000fd5b7f636f6e737472756374696f6e20776f726b000000000000000000000000000000600082015250565b7f74726166666963206a616d000000000000000000000000000000000000000000600082015250565b7f726f61642064616d616765640000000000000000000000000000000000000000600082015250565b7f6163636964656e74000000000000000000000000000000000000000000000000600082015250565b7f7361666500000000000000000000000000000000000000000000000000000000600082015250565b7f726564206c696768740000000000000000000000000000000000000000000000600082015250565b6123d980620008446000396000f3fe608060405234801561001057600080fd5b50600436106100935760003560e01c806384628616116100665780638462861614610144578063ad9aedb814610160578063badc00611461017c578063ce76a05e146101ae578063fbda68e2146101de57610093565b8063320799551461009857806334f49c76146100c85780633f1aafe3146100f857806360de974414610128575b600080fd5b6100b260048036038101906100ad919061189d565b6101fc565b6040516100bf9190611aca565b60405180910390f35b6100e260048036038101906100dd919061185c565b6102a8565b6040516100ef9190611bcc565b60405180910390f35b610112600480360381019061010d91906117c7565b6102d0565b60405161011f9190611bcc565b60405180910390f35b610142600480360381019061013d91906117f0565b61048c565b005b61015e600480360381019061015991906117c7565b610bef565b005b61017a6004803603810190610175919061185c565b610e93565b005b610196600480360381019061019191906117c7565b610fff565b6040516101a593929190611a78565b60405180910390f35b6101c860048036038101906101c391906117c7565b6112a5565b6040516101d59190611aaf565b60405180910390f35b6101e6611595565b6040516101f39190611bcc565b60405180910390f35b6003818154811061020c57600080fd5b90600052602060002001600091509050805461022790612057565b80601f016020809104026020016040519081016040528092919081815260200182805461025390612057565b80156102a05780601f10610275576101008083540402835291602001916102a0565b820191906000526020600020905b81548152906001019060200180831161028357829003601f168201915b505050505081565b60006004826040516102ba9190611a61565b9081526020016040518091039020549050919050565b60008160011515600560008373ffffffffffffffffffffffffffffffffffffffff1673ffffffffffffffffffffffffffffffffffffffff16815260200190815260200160002060009054906101000a900460ff16151514610366576040517f08c379a000000000000000000000000000000000000000000000000000000000815260040161035d90611b2c565b60405180910390fd5b600015156002600660008473ffffffffffffffffffffffffffffffffffffffff1673ffffffffffffffffffffffffffffffffffffffff16815260200190815260200160002054815481106103e3577f4e487b7100000000000000000000000000000000000000000000000000000000600052603260045260246000fd5b906000526020600020906003020160020160009054906101000a900460ff16151514610444576040517f08c379a000000000000000000000000000000000000000000000000000000000815260040161043b90611b4c565b60405180910390fd5b600660008473ffffffffffffffffffffffffffffffffffffffff1673ffffffffffffffffffffffffffffffffffffffff16815260200190815260200160002054915050919050565b3360011515600560008373ffffffffffffffffffffffffffffffffffffffff1673ffffffffffffffffffffffffffffffffffffffff16815260200190815260200160002060009054906101000a900460ff16151514610520576040517f08c379a000000000000000000000000000000000000000000000000000000000815260040161051790611b2c565b60405180910390fd5b600015156002600660008473ffffffffffffffffffffffffffffffffffffffff1673ffffffffffffffffffffffffffffffffffffffff168152602001908152602001600020548154811061059d577f4e487b7100000000000000000000000000000000000000000000000000000000600052603260045260246000fd5b906000526020600020906003020160020160009054906101000a900460ff161515146105fe576040517f08c379a00000000000000000000000000000000000000000000000000000000081526004016105f590611b4c565b60405180910390fd5b8160006004826040516106119190611a61565b90815260200160405180910390205411610660576040517f08c379a000000000000000000000000000000000000000000000000000000000815260040161065790611b0c565b60405180910390fd5b6001546004826040516106739190611a61565b908152602001604051809103902054106106c2576040517f08c379a00000000000000000000000000000000000000000000000000000000081526004016106b990611b0c565b60405180910390fd5b60008060005b86518110156109a357600087828151811061070c577f4e487b7100000000000000000000000000000000000000000000000000000000600052603260045260246000fd5b602002602001015160000151148061076c575060028054905087828151811061075e577f4e487b7100000000000000000000000000000000000000000000000000000000600052603260045260246000fd5b602002602001015160000151115b156107c15760008782815181106107ac577f4e487b7100000000000000000000000000000000000000000000000000000000600052603260045260246000fd5b60200260200101516020018181525050610990565b60028782815181106107fc577f4e487b7100000000000000000000000000000000000000000000000000000000600052603260045260246000fd5b6020026020010151600001518154811061083f577f4e487b7100000000000000000000000000000000000000000000000000000000600052603260045260246000fd5b906000526020600020906003020160020160009054906101000a900460ff16156108b357600087828151811061089e577f4e487b7100000000000000000000000000000000000000000000000000000000600052603260045260246000fd5b60200260200101516020018181525050610990565b60018782815181106108ee577f4e487b7100000000000000000000000000000000000000000000000000000000600052603260045260246000fd5b602002602001015160200151141561091357828061090b906120ba565b93505061098f565b7fffffffffffffffffffffffffffffffffffffffffffffffffffffffffffffffff87828151811061096d577f4e487b7100000000000000000000000000000000000000000000000000000000600052603260045260246000fd5b602002602001015160200151141561098e57818061098a906120ba565b9250505b5b5b808061099b90612103565b9150506106c8565b5060005b8651811015610be65760008782815181106109eb577f4e487b7100000000000000000000000000000000000000000000000000000000600052603260045260246000fd5b6020026020010151602001511415610a0257610bd3565b6000878281518110610a3d577f4e487b7100000000000000000000000000000000000000000000000000000000600052603260045260246000fd5b60200260200101516000015190506000838585610a5a9190611c90565b85610a659190611d7a565b610a6f9190611de4565b858587610a7c9190611c90565b87610a879190611d7a565b610a919190611de4565b610a9b9190611efb565b90508385610aa99190611c90565b81610ab49190611d7a565b90508060028381548110610af1577f4e487b7100000000000000000000000000000000000000000000000000000000600052603260045260246000fd5b90600052602060002090600302016001016000828254610b119190611c90565b92505081905550600060028381548110610b54577f4e487b7100000000000000000000000000000000000000000000000000000000600052603260045260246000fd5b90600052602060002090600302016001015413610bd057600160028381548110610ba7577f4e487b7100000000000000000000000000000000000000000000000000000000600052603260045260246000fd5b906000526020600020906003020160020160006101000a81548160ff0219169083151502179055505b50505b8080610bde90612103565b9150506109a7565b50505050505050565b60008054906101000a900473ffffffffffffffffffffffffffffffffffffffff1673ffffffffffffffffffffffffffffffffffffffff163373ffffffffffffffffffffffffffffffffffffffff1614610c7d576040517f08c379a0000000000000000000000000000000000000000000000000000000008152600401610c7490611bac565b60405180910390fd5b60001515600560008373ffffffffffffffffffffffffffffffffffffffff1673ffffffffffffffffffffffffffffffffffffffff16815260200190815260200160002060009054906101000a900460ff16151514610d10576040517f08c379a0000000000000000000000000000000000000000000000000000000008152600401610d0790611b6c565b60405180910390fd5b6001600560008373ffffffffffffffffffffffffffffffffffffffff1673ffffffffffffffffffffffffffffffffffffffff16815260200190815260200160002060006101000a81548160ff021916908315150217905550600260405180606001604052808373ffffffffffffffffffffffffffffffffffffffff168152602001600a815260200160001515815250908060018154018082558091505060019003906000526020600020906003020160009091909190915060008201518160000160006101000a81548173ffffffffffffffffffffffffffffffffffffffff021916908373ffffffffffffffffffffffffffffffffffffffff1602179055506020820151816001015560408201518160020160006101000a81548160ff02191690831515021790555050506001600280549050610e4d9190611f8f565b600660008373ffffffffffffffffffffffffffffffffffffffff1673ffffffffffffffffffffffffffffffffffffffff1681526020019081526020016000208190555050565b60008054906101000a900473ffffffffffffffffffffffffffffffffffffffff1673ffffffffffffffffffffffffffffffffffffffff163373ffffffffffffffffffffffffffffffffffffffff1614610f21576040517f08c379a0000000000000000000000000000000000000000000000000000000008152600401610f1890611bac565b60405180910390fd5b6000600482604051610f339190611a61565b90815260200160405180910390205414610f82576040517f08c379a0000000000000000000000000000000000000000000000000000000008152600401610f7990611b8c565b60405180910390fd5b600154600482604051610f959190611a61565b908152602001604051809103902081905550600381908060018154018082558091505060019003906000526020600020016000909190919091509080519060200190610fe292919061159b565b506001806000828254610ff59190611d24565b9250508190555050565b60008060008360011515600560008373ffffffffffffffffffffffffffffffffffffffff1673ffffffffffffffffffffffffffffffffffffffff16815260200190815260200160002060009054906101000a900460ff16151514611098576040517f08c379a000000000000000000000000000000000000000000000000000000000815260040161108f90611b2c565b60405180910390fd5b600015156002600660008473ffffffffffffffffffffffffffffffffffffffff1673ffffffffffffffffffffffffffffffffffffffff1681526020019081526020016000205481548110611115577f4e487b7100000000000000000000000000000000000000000000000000000000600052603260045260246000fd5b906000526020600020906003020160020160009054906101000a900460ff16151514611176576040517f08c379a000000000000000000000000000000000000000000000000000000000815260040161116d90611b4c565b60405180910390fd5b60006002600660008873ffffffffffffffffffffffffffffffffffffffff1673ffffffffffffffffffffffffffffffffffffffff16815260200190815260200160002054815481106111f1577f4e487b7100000000000000000000000000000000000000000000000000000000600052603260045260246000fd5b90600052602060002090600302016040518060600160405290816000820160009054906101000a900473ffffffffffffffffffffffffffffffffffffffff1673ffffffffffffffffffffffffffffffffffffffff1673ffffffffffffffffffffffffffffffffffffffff168152602001600182015481526020016002820160009054906101000a900460ff161515151581525050905080600001518160200151826040015194509450945050509193909250565b60008160011515600560008373ffffffffffffffffffffffffffffffffffffffff1673ffffffffffffffffffffffffffffffffffffffff16815260200190815260200160002060009054906101000a900460ff1615151461133b576040517f08c379a000000000000000000000000000000000000000000000000000000000815260040161133290611b2c565b60405180910390fd5b600015156002600660008473ffffffffffffffffffffffffffffffffffffffff1673ffffffffffffffffffffffffffffffffffffffff16815260200190815260200160002054815481106113b8577f4e487b7100000000000000000000000000000000000000000000000000000000600052603260045260246000fd5b906000526020600020906003020160020160009054906101000a900460ff16151514611419576040517f08c379a000000000000000000000000000000000000000000000000000000000815260040161141090611b4c565b60405180910390fd5b60011515600560003373ffffffffffffffffffffffffffffffffffffffff1673ffffffffffffffffffffffffffffffffffffffff16815260200190815260200160002060009054906101000a900460ff16151514806114c3575060008054906101000a900473ffffffffffffffffffffffffffffffffffffffff1673ffffffffffffffffffffffffffffffffffffffff163373ffffffffffffffffffffffffffffffffffffffff16145b611502576040517f08c379a00000000000000000000000000000000000000000000000000000000081526004016114f990611aec565b60405180910390fd5b6002600660008573ffffffffffffffffffffffffffffffffffffffff1673ffffffffffffffffffffffffffffffffffffffff168152602001908152602001600020548154811061157b577f4e487b7100000000000000000000000000000000000000000000000000000000600052603260045260246000fd5b906000526020600020906003020160010154915050919050565b60015481565b8280546115a790612057565b90600052602060002090601f0160209004810192826115c95760008555611610565b82601f106115e257805160ff1916838001178555611610565b82800160010185558215611610579182015b8281111561160f5782518255916020019190600101906115f4565b5b50905061161d9190611621565b5090565b5b8082111561163a576000816000905550600101611622565b5090565b600061165161164c84611c0c565b611be7565b9050808382526020820190508285604086028201111561167057600080fd5b60005b858110156116a057816116868882611766565b845260208401935060408301925050600181019050611673565b5050509392505050565b60006116bd6116b884611c38565b611be7565b9050828152602081018484840111156116d557600080fd5b6116e0848285612015565b509392505050565b6000813590506116f78161235e565b92915050565b600082601f83011261170e57600080fd5b813561171e84826020860161163e565b91505092915050565b60008135905061173681612375565b92915050565b600082601f83011261174d57600080fd5b813561175d8482602086016116aa565b91505092915050565b60006040828403121561177857600080fd5b6117826040611be7565b90506000611792848285016117b2565b60008301525060206117a684828501611727565b60208301525092915050565b6000813590506117c18161238c565b92915050565b6000602082840312156117d957600080fd5b60006117e7848285016116e8565b91505092915050565b6000806040838503121561180357600080fd5b600083013567ffffffffffffffff81111561181d57600080fd5b611829858286016116fd565b925050602083013567ffffffffffffffff81111561184657600080fd5b6118528582860161173c565b9150509250929050565b60006020828403121561186e57600080fd5b600082013567ffffffffffffffff81111561188857600080fd5b6118948482850161173c565b91505092915050565b6000602082840312156118af57600080fd5b60006118bd848285016117b2565b91505092915050565b6118cf81611fc3565b82525050565b6118de81611fd5565b82525050565b6118ed81611fe1565b82525050565b60006118fe82611c69565b6119088185611c74565b9350611918818560208601612024565b61192181612208565b840191505092915050565b600061193782611c69565b6119418185611c85565b9350611951818560208601612024565b80840191505092915050565b600061196a602083611c74565b915061197582612219565b602082019050919050565b600061198d602b83611c74565b915061199882612242565b604082019050919050565b60006119b0601983611c74565b91506119bb82612291565b602082019050919050565b60006119d3601483611c74565b91506119de826122ba565b602082019050919050565b60006119f6601c83611c74565b9150611a01826122e3565b602082019050919050565b6000611a19601b83611c74565b9150611a248261230c565b602082019050919050565b6000611a3c601483611c74565b9150611a4782612335565b602082019050919050565b611a5b8161200b565b82525050565b6000611a6d828461192c565b915081905092915050565b6000606082019050611a8d60008301866118c6565b611a9a60208301856118e4565b611aa760408301846118d5565b949350505050565b6000602082019050611ac460008301846118e4565b92915050565b60006020820190508181036000830152611ae481846118f3565b905092915050565b60006020820190508181036000830152611b058161195d565b9050919050565b60006020820190508181036000830152611b2581611980565b9050919050565b60006020820190508181036000830152611b45816119a3565b9050919050565b60006020820190508181036000830152611b65816119c6565b9050919050565b60006020820190508181036000830152611b85816119e9565b9050919050565b60006020820190508181036000830152611ba581611a0c565b9050919050565b60006020820190508181036000830152611bc581611a2f565b9050919050565b6000602082019050611be16000830184611a52565b92915050565b6000611bf1611c02565b9050611bfd8282612089565b919050565b6000604051905090565b600067ffffffffffffffff821115611c2757611c266121d9565b5b602082029050602081019050919050565b600067ffffffffffffffff821115611c5357611c526121d9565b5b611c5c82612208565b9050602081019050919050565b600081519050919050565b600082825260208201905092915050565b600081905092915050565b6000611c9b82611fe1565b9150611ca683611fe1565b9250817f7fffffffffffffffffffffffffffffffffffffffffffffffffffffffffffffff03831360008312151615611ce157611ce061214c565b5b817f8000000000000000000000000000000000000000000000000000000000000000038312600083121615611d1957611d1861214c565b5b828201905092915050565b6000611d2f8261200b565b9150611d3a8361200b565b9250827fffffffffffffffffffffffffffffffffffffffffffffffffffffffffffffffff03821115611d6f57611d6e61214c565b5b828201905092915050565b6000611d8582611fe1565b9150611d9083611fe1565b925082611da057611d9f61217b565b5b600160000383147f800000000000000000000000000000000000000000000000000000000000000083141615611dd957611dd861214c565b5b828205905092915050565b6000611def82611fe1565b9150611dfa83611fe1565b9250827f7fffffffffffffffffffffffffffffffffffffffffffffffffffffffffffffff0482116000841360008413161615611e3957611e3861214c565b5b817f80000000000000000000000000000000000000000000000000000000000000000583126000841260008413161615611e7657611e7561214c565b5b827f80000000000000000000000000000000000000000000000000000000000000000582126000841360008412161615611eb357611eb261214c565b5b827f7fffffffffffffffffffffffffffffffffffffffffffffffffffffffffffffff0582126000841260008412161615611ef057611eef61214c565b5b828202905092915050565b6000611f0682611fe1565b9150611f1183611fe1565b9250827f800000000000000000000000000000000000000000000000000000000000000001821260008412151615611f4c57611f4b61214c565b5b827f7fffffffffffffffffffffffffffffffffffffffffffffffffffffffffffffff018213600084121615611f8457611f8361214c565b5b828203905092915050565b6000611f9a8261200b565b9150611fa58361200b565b925082821015611fb857611fb761214c565b5b828203905092915050565b6000611fce82611feb565b9050919050565b60008115159050919050565b6000819050919050565b600073ffffffffffffffffffffffffffffffffffffffff82169050919050565b6000819050919050565b82818337600083830152505050565b60005b83811015612042578082015181840152602081019050612027565b83811115612051576000848401525b50505050565b6000600282049050600182168061206f57607f821691505b60208210811415612083576120826121aa565b5b50919050565b61209282612208565b810181811067ffffffffffffffff821117156120b1576120b06121d9565b5b80604052505050565b60006120c582611fe1565b91507f7fffffffffffffffffffffffffffffffffffffffffffffffffffffffffffffff8214156120f8576120f761214c565b5b600182019050919050565b600061210e8261200b565b91507fffffffffffffffffffffffffffffffffffffffffffffffffffffffffffffffff8214156121415761214061214c565b5b600182019050919050565b7f4e487b7100000000000000000000000000000000000000000000000000000000600052601160045260246000fd5b7f4e487b7100000000000000000000000000000000000000000000000000000000600052601260045260246000fd5b7f4e487b7100000000000000000000000000000000000000000000000000000000600052602260045260246000fd5b7f4e487b7100000000000000000000000000000000000000000000000000000000600052604160045260246000fd5b6000601f19601f8301169050919050565b7f53656e646572206973206e6f7420612076616c6964204964656e746974792121600082015250565b7f4d657373616765206e6f7420766572696669656420627920636f6e6365726e6560008201527f6420617574686f72697479000000000000000000000000000000000000000000602082015250565b7f56656869636c65206e6f74205265676973746572656421212100000000000000600082015250565b7f56656869636c65206973205265766f6b65642121000000000000000000000000600082015250565b7f56656869636c6520416c72656164792052656769737465726564212100000000600082015250565b7f4d65737361676520416c726561647920696e2044617461426173650000000000600082015250565b7f4e6f74205472616e706f72742041646d696e2121000000000000000000000000600082015250565b61236781611fc3565b811461237257600080fd5b50565b61237e81611fe1565b811461238957600080fd5b50565b6123958161200b565b81146123a057600080fd5b5056fea2646970667358221220a374bd86c9d5ece805ea1ebb0d151e5499aea9c2079fb4b26332324740a888bd64736f6c63430008040033",
  "linkReferences": {},
  "deployedLinkReferences": {}
}