{
  "_format": "hh-sol-artifact-1",
  "contractName": "RSU",
  "sourceName": "contracts/RSU.sol",
  "abi": [
    {
      "inputs": [],
      "stateMutability": "nonpayable",
      "type": "constructor"
    },
    {
      "anonymous": false,
      "inputs": [
        {
          "indexed": false,
          "internalType": "address",
          "name": "from",
          "type": "address"
        },
        {
          "indexed": false,
          "internalType": "string",
          "name": "location",
          "type": "string"
        },
        {
          "indexed": false,
          "internalType": "string",
          "name": "message",
          "type": "string"
        }
      ],
      "name": "broadcast",
      "type": "event"
    },
    {
      "inputs": [
        {
          "internalType": "string",
          "name": "message",
          "type": "string"
        }
      ],
      "name": "addMsg",
      "outputs": [],
      "stateMutability": "nonpayable",
      "type": "function"
    },
    {
      "inputs": [
        {
          "internalType": "address",
          "name": "_addr",
          "type": "address"
        }
      ],
      "name": "addVehicle",
      "outputs": [],
      "stateMutability": "nonpayable",
      "type": "function"
    },
    {
      "inputs": [
        {
          "internalType": "string",
          "name": "message",
          "type": "string"
        },
        {
          "internalType": "string",
          "name": "location",
          "type": "string"
        }
      ],
      "name": "broadCast",
      "outputs": [
        {
          "internalType": "int256",
          "name": "",
          "type": "int256"
        }
      ],
      "stateMutability": "nonpayable",
      "type": "function"
    },
    {
      "inputs": [
        {
          "internalType": "string",
          "name": "message",
          "type": "string"
        }
      ],
      "name": "getMessageId",
      "outputs": [
        {
          "internalType": "uint256",
          "name": "",
          "type": "uint256"
        }
      ],
      "stateMutability": "view",
      "type": "function"
    },
    {
      "inputs": [
        {
          "internalType": "address",
          "name": "_senderAddress",
          "type": "address"
        }
      ],
      "name": "getTrustValue",
      "outputs": [
        {
          "internalType": "int256",
          "name": "",
          "type": "int256"
        }
      ],
      "stateMutability": "view",
      "type": "function"
    },
    {
      "inputs": [
        {
          "internalType": "address",
          "name": "_addr",
          "type": "address"
        }
      ],
      "name": "getVehicleId",
      "outputs": [
        {
          "internalType": "uint256",
          "name": "",
          "type": "uint256"
        }
      ],
      "stateMutability": "view",
      "type": "function"
    },
    {
      "inputs": [
        {
          "internalType": "address",
          "name": "_senderAddress",
          "type": "address"
        }
      ],
      "name": "getVehicleInfo",
      "outputs": [
        {
          "internalType": "address",
          "name": "",
          "type": "address"
        },
        {
          "internalType": "int256",
          "name": "",
          "type": "int256"
        },
        {
          "internalType": "bool",
          "name": "",
          "type": "bool"
        }
      ],
      "stateMutability": "view",
      "type": "function"
    },
    {
      "inputs": [
        {
          "internalType": "uint256",
          "name": "",
          "type": "uint256"
        }
      ],
      "name": "msgs",
      "outputs": [
        {
          "internalType": "string",
          "name": "",
          "type": "string"
        }
      ],
      "stateMutability": "view",
      "type": "function"
    },
    {
      "inputs": [],
      "name": "numberOfMessages",
      "outputs": [
        {
          "internalType": "uint256",
          "name": "",
          "type": "uint256"
        }
      ],
      "stateMutability": "view",
      "type": "function"
    },
    {
      "inputs": [
        {
          "components": [
            {
              "internalType": "uint256",
              "name": "vId",
              "type": "uint256"
            },
            {
              "internalType": "int256",
              "name": "rating",
              "type": "int256"
            }
          ],
          "internalType": "struct RSU.ratingRequest[]",
          "name": "inputRatings",
          "type": "tuple[]"
        },
        {
          "internalType": "string",
          "name": "message",
          "type": "string"
        }
      ],
      "name": "sendRatings",
      "outputs": [],
      "stateMutability": "nonpayable",
      "type": "function"
    }
  ],
  "bytecode": "0x60806040523480156200001157600080fd5b50336000806101000a81548173ffffffffffffffffffffffffffffffffffffffff021916908373ffffffffffffffffffffffffffffffffffffffff160217905550600260405180606001604052803373ffffffffffffffffffffffffffffffffffffffff1681526020016000815260200160011515815250908060018154018082558091505060019003906000526020600020906003020160009091909190915060008201518160000160006101000a81548173ffffffffffffffffffffffffffffffffffffffff021916908373ffffffffffffffffffffffffffffffffffffffff1602179055506020820151816001015560408201518160020160006101000a81548160ff02191690831515021790555050506001600460405162000137906200065b565b908152602001604051809103902081905550600380600181540180825580915050600190039060005260206000200160006040518060400160405280600b81526020017f74726166666963206a616d00000000000000000000000000000000000000000081525090919091509080519060200190620001b8929190620004aa565b5060026004604051620001cb9062000689565b908152602001604051809103902081905550600380600181540180825580915050600190039060005260206000200160006040518060400160405280600881526020017f6163636964656e74000000000000000000000000000000000000000000000000815250909190915090805190602001906200024c929190620004aa565b50600360046040516200025f9062000644565b908152602001604051809103902081905550600380600181540180825580915050600190039060005260206000200160006040518060400160405280601181526020017f636f6e737472756374696f6e20776f726b00000000000000000000000000000081525090919091509080519060200190620002e0929190620004aa565b50600480604051620002f29062000672565b908152602001604051809103902081905550600380600181540180825580915050600190039060005260206000200160006040518060400160405280600c81526020017f726f61642064616d6167656400000000000000000000000000000000000000008152509091909150908051906020019062000373929190620004aa565b50600560046040516200038690620006a0565b908152602001604051809103902081905550600380600181540180825580915050600190039060005260206000200160006040518060400160405280600481526020017f73616665000000000000000000000000000000000000000000000000000000008152509091909150908051906020019062000407929190620004aa565b50600660046040516200041a90620006b7565b908152602001604051809103902081905550600380600181540180825580915050600190039060005260206000200160006040518060400160405280600981526020017f726564206c696768740000000000000000000000000000000000000000000000815250909190915090805190602001906200049b929190620004aa565b50600760018190555062000834565b828054620004b890620006d9565b90600052602060002090601f016020900481019282620004dc576000855562000528565b82601f10620004f757805160ff191683800117855562000528565b8280016001018555821562000528579182015b82811115620005275782518255916020019190600101906200050a565b5b5090506200053791906200053b565b5090565b5b80821115620005565760008160009055506001016200053c565b5090565b600062000569601183620006ce565b915062000576826200073e565b601182019050919050565b600062000590600b83620006ce565b91506200059d8262000767565b600b82019050919050565b6000620005b7600c83620006ce565b9150620005c48262000790565b600c82019050919050565b6000620005de600883620006ce565b9150620005eb82620007b9565b600882019050919050565b600062000605600483620006ce565b91506200061282620007e2565b600482019050919050565b60006200062c600983620006ce565b915062000639826200080b565b600982019050919050565b600062000651826200055a565b9150819050919050565b6000620006688262000581565b9150819050919050565b60006200067f82620005a8565b9150819050919050565b60006200069682620005cf565b9150819050919050565b6000620006ad82620005f6565b9150819050919050565b6000620006c4826200061d565b9150819050919050565b600081905092915050565b60006002820490506001821680620006f257607f821691505b602082108114156200070957620007086200070f565b5b50919050565b7f4e487b7100000000000000000000000000000000000000000000000000000000600052602260045260246000fd5b7f636f6e737472756374696f6e20776f726b000000000000000000000000000000600082015250565b7f74726166666963206a616d000000000000000000000000000000000000000000600082015250565b7f726f61642064616d616765640000000000000000000000000000000000000000600082015250565b7f6163636964656e74000000000000000000000000000000000000000000000000600082015250565b7f7361666500000000000000000000000000000000000000000000000000000000600082015250565b7f726564206c696768740000000000000000000000000000000000000000000000600082015250565b61269f80620008446000396000f3fe608060405234801561001057600080fd5b506004361061009e5760003560e01c8063ad9aedb811610066578063ad9aedb81461016b578063badc006114610187578063ce76a05e146101b9578063ecc6a4db146101e9578063fbda68e2146102195761009e565b806332079955146100a357806334f49c76146100d35780633f1aafe31461010357806360de974414610133578063846286161461014f575b600080fd5b6100bd60048036038101906100b89190611bb7565b610237565b6040516100ca9190611e29565b60405180910390f35b6100ed60048036038101906100e89190611b0a565b6102e3565b6040516100fa9190611f2b565b60405180910390f35b61011d60048036038101906101189190611a75565b61030b565b60405161012a9190611f2b565b60405180910390f35b61014d60048036038101906101489190611a9e565b6104c7565b005b61016960048036038101906101649190611a75565b610c1e565b005b61018560048036038101906101809190611b0a565b610ec2565b005b6101a1600480360381019061019c9190611a75565b61102e565b6040516101b093929190611d92565b60405180910390f35b6101d360048036038101906101ce9190611a75565b6112d4565b6040516101e09190611e0e565b60405180910390f35b61020360048036038101906101fe9190611b4b565b6115c4565b6040516102109190611e0e565b60405180910390f35b610221611843565b60405161022e9190611f2b565b60405180910390f35b6003818154811061024757600080fd5b9060005260206000200160009150905080546102629061234c565b80601f016020809104026020016040519081016040528092919081815260200182805461028e9061234c565b80156102db5780601f106102b0576101008083540402835291602001916102db565b820191906000526020600020905b8154815290600101906020018083116102be57829003601f168201915b505050505081565b60006004826040516102f59190611d7b565b9081526020016040518091039020549050919050565b60008160011515600560008373ffffffffffffffffffffffffffffffffffffffff1673ffffffffffffffffffffffffffffffffffffffff16815260200190815260200160002060009054906101000a900460ff161515146103a1576040517f08c379a000000000000000000000000000000000000000000000000000000000815260040161039890611e8b565b60405180910390fd5b600015156002600660008473ffffffffffffffffffffffffffffffffffffffff1673ffffffffffffffffffffffffffffffffffffffff168152602001908152602001600020548154811061041e577f4e487b7100000000000000000000000000000000000000000000000000000000600052603260045260246000fd5b906000526020600020906003020160020160009054906101000a900460ff1615151461047f576040517f08c379a000000000000000000000000000000000000000000000000000000000815260040161047690611eab565b60405180910390fd5b600660008473ffffffffffffffffffffffffffffffffffffffff1673ffffffffffffffffffffffffffffffffffffffff16815260200190815260200160002054915050919050565b3360011515600560008373ffffffffffffffffffffffffffffffffffffffff1673ffffffffffffffffffffffffffffffffffffffff16815260200190815260200160002060009054906101000a900460ff1615151461055b576040517f08c379a000000000000000000000000000000000000000000000000000000000815260040161055290611e8b565b60405180910390fd5b600015156002600660008473ffffffffffffffffffffffffffffffffffffffff1673ffffffffffffffffffffffffffffffffffffffff16815260200190815260200160002054815481106105d8577f4e487b7100000000000000000000000000000000000000000000000000000000600052603260045260246000fd5b906000526020600020906003020160020160009054906101000a900460ff16151514610639576040517f08c379a000000000000000000000000000000000000000000000000000000000815260040161063090611eab565b60405180910390fd5b81600060048260405161064c9190611d7b565b9081526020016040518091039020541161069b576040517f08c379a000000000000000000000000000000000000000000000000000000000815260040161069290611e6b565b60405180910390fd5b6001546004826040516106ae9190611d7b565b908152602001604051809103902054106106fd576040517f08c379a00000000000000000000000000000000000000000000000000000000081526004016106f490611e6b565b60405180910390fd5b60008060005b86518110156109de576000878281518110610747577f4e487b7100000000000000000000000000000000000000000000000000000000600052603260045260246000fd5b60200260200101516000015114806107a75750600280549050878281518110610799577f4e487b7100000000000000000000000000000000000000000000000000000000600052603260045260246000fd5b602002602001015160000151115b156107fc5760008782815181106107e7577f4e487b7100000000000000000000000000000000000000000000000000000000600052603260045260246000fd5b602002602001015160200181815250506109cb565b6002878281518110610837577f4e487b7100000000000000000000000000000000000000000000000000000000600052603260045260246000fd5b6020026020010151600001518154811061087a577f4e487b7100000000000000000000000000000000000000000000000000000000600052603260045260246000fd5b906000526020600020906003020160020160009054906101000a900460ff16156108ee5760008782815181106108d9577f4e487b7100000000000000000000000000000000000000000000000000000000600052603260045260246000fd5b602002602001015160200181815250506109cb565b6001878281518110610929577f4e487b7100000000000000000000000000000000000000000000000000000000600052603260045260246000fd5b602002602001015160200151141561094e578280610946906123af565b9350506109ca565b7fffffffffffffffffffffffffffffffffffffffffffffffffffffffffffffffff8782815181106109a8577f4e487b7100000000000000000000000000000000000000000000000000000000600052603260045260246000fd5b60200260200101516020015114156109c95781806109c5906123af565b9250505b5b5b80806109d6906123f8565b915050610703565b5060005b8651811015610c15576000878281518110610a26577f4e487b7100000000000000000000000000000000000000000000000000000000600052603260045260246000fd5b6020026020010151602001511415610a3d57610c02565b6000878281518110610a78577f4e487b7100000000000000000000000000000000000000000000000000000000600052603260045260246000fd5b602002602001015160000151905060008385610a9491906121f0565b905080898481518110610ad0577f4e487b7100000000000000000000000000000000000000000000000000000000600052603260045260246000fd5b602002602001015160200151610ae691906120d9565b60028381548110610b20577f4e487b7100000000000000000000000000000000000000000000000000000000600052603260045260246000fd5b90600052602060002090600302016001016000828254610b409190611fef565b92505081905550600060028381548110610b83577f4e487b7100000000000000000000000000000000000000000000000000000000600052603260045260246000fd5b90600052602060002090600302016001015413610bff57600160028381548110610bd6577f4e487b7100000000000000000000000000000000000000000000000000000000600052603260045260246000fd5b906000526020600020906003020160020160006101000a81548160ff0219169083151502179055505b50505b8080610c0d906123f8565b9150506109e2565b50505050505050565b60008054906101000a900473ffffffffffffffffffffffffffffffffffffffff1673ffffffffffffffffffffffffffffffffffffffff163373ffffffffffffffffffffffffffffffffffffffff1614610cac576040517f08c379a0000000000000000000000000000000000000000000000000000000008152600401610ca390611f0b565b60405180910390fd5b60001515600560008373ffffffffffffffffffffffffffffffffffffffff1673ffffffffffffffffffffffffffffffffffffffff16815260200190815260200160002060009054906101000a900460ff16151514610d3f576040517f08c379a0000000000000000000000000000000000000000000000000000000008152600401610d3690611ecb565b60405180910390fd5b6001600560008373ffffffffffffffffffffffffffffffffffffffff1673ffffffffffffffffffffffffffffffffffffffff16815260200190815260200160002060006101000a81548160ff021916908315150217905550600260405180606001604052808373ffffffffffffffffffffffffffffffffffffffff168152602001600a815260200160001515815250908060018154018082558091505060019003906000526020600020906003020160009091909190915060008201518160000160006101000a81548173ffffffffffffffffffffffffffffffffffffffff021916908373ffffffffffffffffffffffffffffffffffffffff1602179055506020820151816001015560408201518160020160006101000a81548160ff02191690831515021790555050506001600280549050610e7c9190612284565b600660008373ffffffffffffffffffffffffffffffffffffffff1673ffffffffffffffffffffffffffffffffffffffff1681526020019081526020016000208190555050565b60008054906101000a900473ffffffffffffffffffffffffffffffffffffffff1673ffffffffffffffffffffffffffffffffffffffff163373ffffffffffffffffffffffffffffffffffffffff1614610f50576040517f08c379a0000000000000000000000000000000000000000000000000000000008152600401610f4790611f0b565b60405180910390fd5b6000600482604051610f629190611d7b565b90815260200160405180910390205414610fb1576040517f08c379a0000000000000000000000000000000000000000000000000000000008152600401610fa890611eeb565b60405180910390fd5b600154600482604051610fc49190611d7b565b908152602001604051809103902081905550600381908060018154018082558091505060019003906000526020600020016000909190919091509080519060200190611011929190611849565b5060018060008282546110249190612083565b9250508190555050565b60008060008360011515600560008373ffffffffffffffffffffffffffffffffffffffff1673ffffffffffffffffffffffffffffffffffffffff16815260200190815260200160002060009054906101000a900460ff161515146110c7576040517f08c379a00000000000000000000000000000000000000000000000000000000081526004016110be90611e8b565b60405180910390fd5b600015156002600660008473ffffffffffffffffffffffffffffffffffffffff1673ffffffffffffffffffffffffffffffffffffffff1681526020019081526020016000205481548110611144577f4e487b7100000000000000000000000000000000000000000000000000000000600052603260045260246000fd5b906000526020600020906003020160020160009054906101000a900460ff161515146111a5576040517f08c379a000000000000000000000000000000000000000000000000000000000815260040161119c90611eab565b60405180910390fd5b60006002600660008873ffffffffffffffffffffffffffffffffffffffff1673ffffffffffffffffffffffffffffffffffffffff1681526020019081526020016000205481548110611220577f4e487b7100000000000000000000000000000000000000000000000000000000600052603260045260246000fd5b90600052602060002090600302016040518060600160405290816000820160009054906101000a900473ffffffffffffffffffffffffffffffffffffffff1673ffffffffffffffffffffffffffffffffffffffff1673ffffffffffffffffffffffffffffffffffffffff168152602001600182015481526020016002820160009054906101000a900460ff161515151581525050905080600001518160200151826040015194509450945050509193909250565b60008160011515600560008373ffffffffffffffffffffffffffffffffffffffff1673ffffffffffffffffffffffffffffffffffffffff16815260200190815260200160002060009054906101000a900460ff1615151461136a576040517f08c379a000000000000000000000000000000000000000000000000000000000815260040161136190611e8b565b60405180910390fd5b600015156002600660008473ffffffffffffffffffffffffffffffffffffffff1673ffffffffffffffffffffffffffffffffffffffff16815260200190815260200160002054815481106113e7577f4e487b7100000000000000000000000000000000000000000000000000000000600052603260045260246000fd5b906000526020600020906003020160020160009054906101000a900460ff16151514611448576040517f08c379a000000000000000000000000000000000000000000000000000000000815260040161143f90611eab565b60405180910390fd5b60011515600560003373ffffffffffffffffffffffffffffffffffffffff1673ffffffffffffffffffffffffffffffffffffffff16815260200190815260200160002060009054906101000a900460ff16151514806114f2575060008054906101000a900473ffffffffffffffffffffffffffffffffffffffff1673ffffffffffffffffffffffffffffffffffffffff163373ffffffffffffffffffffffffffffffffffffffff16145b611531576040517f08c379a000000000000000000000000000000000000000000000000000000000815260040161152890611e4b565b60405180910390fd5b6002600660008573ffffffffffffffffffffffffffffffffffffffff1673ffffffffffffffffffffffffffffffffffffffff16815260200190815260200160002054815481106115aa577f4e487b7100000000000000000000000000000000000000000000000000000000600052603260045260246000fd5b906000526020600020906003020160010154915050919050565b60003360011515600560008373ffffffffffffffffffffffffffffffffffffffff1673ffffffffffffffffffffffffffffffffffffffff16815260200190815260200160002060009054906101000a900460ff1615151461165a576040517f08c379a000000000000000000000000000000000000000000000000000000000815260040161165190611e8b565b60405180910390fd5b600015156002600660008473ffffffffffffffffffffffffffffffffffffffff1673ffffffffffffffffffffffffffffffffffffffff16815260200190815260200160002054815481106116d7577f4e487b7100000000000000000000000000000000000000000000000000000000600052603260045260246000fd5b906000526020600020906003020160020160009054906101000a900460ff16151514611738576040517f08c379a000000000000000000000000000000000000000000000000000000000815260040161172f90611eab565b60405180910390fd5b83600060048260405161174b9190611d7b565b9081526020016040518091039020541161179a576040517f08c379a000000000000000000000000000000000000000000000000000000000815260040161179190611e6b565b60405180910390fd5b6001546004826040516117ad9190611d7b565b908152602001604051809103902054106117fc576040517f08c379a00000000000000000000000000000000000000000000000000000000081526004016117f390611e6b565b60405180910390fd5b7f6dbb47b5733e585385e1c364c020be47ae02b5e86413504ea7aa67b6d3700a0f33858760405161182f93929190611dc9565b60405180910390a160019250505092915050565b60015481565b8280546118559061234c565b90600052602060002090601f01602090048101928261187757600085556118be565b82601f1061189057805160ff19168380011785556118be565b828001600101855582156118be579182015b828111156118bd5782518255916020019190600101906118a2565b5b5090506118cb91906118cf565b5090565b5b808211156118e85760008160009055506001016118d0565b5090565b60006118ff6118fa84611f6b565b611f46565b9050808382526020820190508285604086028201111561191e57600080fd5b60005b8581101561194e57816119348882611a14565b845260208401935060408301925050600181019050611921565b5050509392505050565b600061196b61196684611f97565b611f46565b90508281526020810184848401111561198357600080fd5b61198e84828561230a565b509392505050565b6000813590506119a581612624565b92915050565b600082601f8301126119bc57600080fd5b81356119cc8482602086016118ec565b91505092915050565b6000813590506119e48161263b565b92915050565b600082601f8301126119fb57600080fd5b8135611a0b848260208601611958565b91505092915050565b600060408284031215611a2657600080fd5b611a306040611f46565b90506000611a4084828501611a60565b6000830152506020611a54848285016119d5565b60208301525092915050565b600081359050611a6f81612652565b92915050565b600060208284031215611a8757600080fd5b6000611a9584828501611996565b91505092915050565b60008060408385031215611ab157600080fd5b600083013567ffffffffffffffff811115611acb57600080fd5b611ad7858286016119ab565b925050602083013567ffffffffffffffff811115611af457600080fd5b611b00858286016119ea565b9150509250929050565b600060208284031215611b1c57600080fd5b600082013567ffffffffffffffff811115611b3657600080fd5b611b42848285016119ea565b91505092915050565b60008060408385031215611b5e57600080fd5b600083013567ffffffffffffffff811115611b7857600080fd5b611b84858286016119ea565b925050602083013567ffffffffffffffff811115611ba157600080fd5b611bad858286016119ea565b9150509250929050565b600060208284031215611bc957600080fd5b6000611bd784828501611a60565b91505092915050565b611be9816122b8565b82525050565b611bf8816122ca565b82525050565b611c07816122d6565b82525050565b6000611c1882611fc8565b611c228185611fd3565b9350611c32818560208601612319565b611c3b816124ce565b840191505092915050565b6000611c5182611fc8565b611c5b8185611fe4565b9350611c6b818560208601612319565b80840191505092915050565b6000611c84602083611fd3565b9150611c8f826124df565b602082019050919050565b6000611ca7602b83611fd3565b9150611cb282612508565b604082019050919050565b6000611cca601983611fd3565b9150611cd582612557565b602082019050919050565b6000611ced601483611fd3565b9150611cf882612580565b602082019050919050565b6000611d10601c83611fd3565b9150611d1b826125a9565b602082019050919050565b6000611d33601b83611fd3565b9150611d3e826125d2565b602082019050919050565b6000611d56601483611fd3565b9150611d61826125fb565b602082019050919050565b611d7581612300565b82525050565b6000611d878284611c46565b915081905092915050565b6000606082019050611da76000830186611be0565b611db46020830185611bfe565b611dc16040830184611bef565b949350505050565b6000606082019050611dde6000830186611be0565b8181036020830152611df08185611c0d565b90508181036040830152611e048184611c0d565b9050949350505050565b6000602082019050611e236000830184611bfe565b92915050565b60006020820190508181036000830152611e438184611c0d565b905092915050565b60006020820190508181036000830152611e6481611c77565b9050919050565b60006020820190508181036000830152611e8481611c9a565b9050919050565b60006020820190508181036000830152611ea481611cbd565b9050919050565b60006020820190508181036000830152611ec481611ce0565b9050919050565b60006020820190508181036000830152611ee481611d03565b9050919050565b60006020820190508181036000830152611f0481611d26565b9050919050565b60006020820190508181036000830152611f2481611d49565b9050919050565b6000602082019050611f406000830184611d6c565b92915050565b6000611f50611f61565b9050611f5c828261237e565b919050565b6000604051905090565b600067ffffffffffffffff821115611f8657611f8561249f565b5b602082029050602081019050919050565b600067ffffffffffffffff821115611fb257611fb161249f565b5b611fbb826124ce565b9050602081019050919050565b600081519050919050565b600082825260208201905092915050565b600081905092915050565b6000611ffa826122d6565b9150612005836122d6565b9250817f7fffffffffffffffffffffffffffffffffffffffffffffffffffffffffffffff038313600083121516156120405761203f612441565b5b817f800000000000000000000000000000000000000000000000000000000000000003831260008312161561207857612077612441565b5b828201905092915050565b600061208e82612300565b915061209983612300565b9250827fffffffffffffffffffffffffffffffffffffffffffffffffffffffffffffffff038211156120ce576120cd612441565b5b828201905092915050565b60006120e4826122d6565b91506120ef836122d6565b9250827f7fffffffffffffffffffffffffffffffffffffffffffffffffffffffffffffff048211600084136000841316161561212e5761212d612441565b5b817f8000000000000000000000000000000000000000000000000000000000000000058312600084126000841316161561216b5761216a612441565b5b827f800000000000000000000000000000000000000000000000000000000000000005821260008413600084121616156121a8576121a7612441565b5b827f7fffffffffffffffffffffffffffffffffffffffffffffffffffffffffffffff05821260008412600084121616156121e5576121e4612441565b5b828202905092915050565b60006121fb826122d6565b9150612206836122d6565b9250827f80000000000000000000000000000000000000000000000000000000000000000182126000841215161561224157612240612441565b5b827f7fffffffffffffffffffffffffffffffffffffffffffffffffffffffffffffff01821360008412161561227957612278612441565b5b828203905092915050565b600061228f82612300565b915061229a83612300565b9250828210156122ad576122ac612441565b5b828203905092915050565b60006122c3826122e0565b9050919050565b60008115159050919050565b6000819050919050565b600073ffffffffffffffffffffffffffffffffffffffff82169050919050565b6000819050919050565b82818337600083830152505050565b60005b8381101561233757808201518184015260208101905061231c565b83811115612346576000848401525b50505050565b6000600282049050600182168061236457607f821691505b6020821081141561237857612377612470565b5b50919050565b612387826124ce565b810181811067ffffffffffffffff821117156123a6576123a561249f565b5b80604052505050565b60006123ba826122d6565b91507f7fffffffffffffffffffffffffffffffffffffffffffffffffffffffffffffff8214156123ed576123ec612441565b5b600182019050919050565b600061240382612300565b91507fffffffffffffffffffffffffffffffffffffffffffffffffffffffffffffffff82141561243657612435612441565b5b600182019050919050565b7f4e487b7100000000000000000000000000000000000000000000000000000000600052601160045260246000fd5b7f4e487b7100000000000000000000000000000000000000000000000000000000600052602260045260246000fd5b7f4e487b7100000000000000000000000000000000000000000000000000000000600052604160045260246000fd5b6000601f19601f8301169050919050565b7f53656e646572206973206e6f7420612076616c6964204964656e746974792121600082015250565b7f4d657373616765206e6f7420766572696669656420627920636f6e6365726e6560008201527f6420617574686f72697479000000000000000000000000000000000000000000602082015250565b7f56656869636c65206e6f74205265676973746572656421212100000000000000600082015250565b7f56656869636c65206973205265766f6b65642121000000000000000000000000600082015250565b7f56656869636c6520416c72656164792052656769737465726564212100000000600082015250565b7f4d65737361676520416c726561647920696e2044617461426173650000000000600082015250565b7f4e6f74205472616e706f72742041646d696e2121000000000000000000000000600082015250565b61262d816122b8565b811461263857600080fd5b50565b612644816122d6565b811461264f57600080fd5b50565b61265b81612300565b811461266657600080fd5b5056fea26469706673582212201627e03494b20c14da3e59b7dde7c0b777daca81f87a3d91d08b4269d4b14c9764736f6c63430008040033",
  "linkReferences": {},
  "deployedLinkReferences": {}
}