{
  "_format": "hh-sol-artifact-1",
  "contractName": "RSU",
  "sourceName": "contracts/RSU.sol",
  "abi": [
    {
      "inputs": [
        {
          "internalType": "string",
          "name": "_name",
          "type": "string"
        }
      ],
      "stateMutability": "nonpayable",
      "type": "constructor"
    },
    {
      "inputs": [],
      "name": "getAdmin",
      "outputs": [
        {
          "internalType": "string",
          "name": "",
          "type": "string"
        }
      ],
      "stateMutability": "view",
      "type": "function"
    },
    {
      "inputs": [
        {
          "internalType": "string",
          "name": "_adminName",
          "type": "string"
        }
      ],
      "name": "setAdminName",
      "outputs": [],
      "stateMutability": "nonpayable",
      "type": "function"
    }
  ],
  "bytecode": "0x608060405234801561001057600080fd5b506040516107c93803806107c98339818101604052810190610032919061019a565b806001908051906020019061004892919061008f565b50336000806101000a81548173ffffffffffffffffffffffffffffffffffffffff021916908373ffffffffffffffffffffffffffffffffffffffff16021790555050610336565b82805461009b90610264565b90600052602060002090601f0160209004810192826100bd5760008555610104565b82601f106100d657805160ff1916838001178555610104565b82800160010185558215610104579182015b828111156101035782518255916020019190600101906100e8565b5b5090506101119190610115565b5090565b5b8082111561012e576000816000905550600101610116565b5090565b600061014561014084610200565b6101db565b90508281526020810184848401111561015d57600080fd5b610168848285610231565b509392505050565b600082601f83011261018157600080fd5b8151610191848260208601610132565b91505092915050565b6000602082840312156101ac57600080fd5b600082015167ffffffffffffffff8111156101c657600080fd5b6101d284828501610170565b91505092915050565b60006101e56101f6565b90506101f18282610296565b919050565b6000604051905090565b600067ffffffffffffffff82111561021b5761021a6102f6565b5b61022482610325565b9050602081019050919050565b60005b8381101561024f578082015181840152602081019050610234565b8381111561025e576000848401525b50505050565b6000600282049050600182168061027c57607f821691505b602082108114156102905761028f6102c7565b5b50919050565b61029f82610325565b810181811067ffffffffffffffff821117156102be576102bd6102f6565b5b80604052505050565b7f4e487b7100000000000000000000000000000000000000000000000000000000600052602260045260246000fd5b7f4e487b7100000000000000000000000000000000000000000000000000000000600052604160045260246000fd5b6000601f19601f8301169050919050565b610484806103456000396000f3fe608060405234801561001057600080fd5b50600436106100365760003560e01c80636e9960c31461003b57806397600a0b14610059575b600080fd5b610043610075565b60405161005091906102a6565b60405180910390f35b610073600480360381019061006e919061022c565b610107565b005b6060600180546100849061037c565b80601f01602080910402602001604051908101604052809291908181526020018280546100b09061037c565b80156100fd5780601f106100d2576101008083540402835291602001916100fd565b820191906000526020600020905b8154815290600101906020018083116100e057829003601f168201915b5050505050905090565b806001908051906020019061011d929190610121565b5050565b82805461012d9061037c565b90600052602060002090601f01602090048101928261014f5760008555610196565b82601f1061016857805160ff1916838001178555610196565b82800160010185558215610196579182015b8281111561019557825182559160200191906001019061017a565b5b5090506101a391906101a7565b5090565b5b808211156101c05760008160009055506001016101a8565b5090565b60006101d76101d2846102ed565b6102c8565b9050828152602081018484840111156101ef57600080fd5b6101fa84828561033a565b509392505050565b600082601f83011261021357600080fd5b81356102238482602086016101c4565b91505092915050565b60006020828403121561023e57600080fd5b600082013567ffffffffffffffff81111561025857600080fd5b61026484828501610202565b91505092915050565b60006102788261031e565b6102828185610329565b9350610292818560208601610349565b61029b8161043d565b840191505092915050565b600060208201905081810360008301526102c0818461026d565b905092915050565b60006102d26102e3565b90506102de82826103ae565b919050565b6000604051905090565b600067ffffffffffffffff8211156103085761030761040e565b5b6103118261043d565b9050602081019050919050565b600081519050919050565b600082825260208201905092915050565b82818337600083830152505050565b60005b8381101561036757808201518184015260208101905061034c565b83811115610376576000848401525b50505050565b6000600282049050600182168061039457607f821691505b602082108114156103a8576103a76103df565b5b50919050565b6103b78261043d565b810181811067ffffffffffffffff821117156103d6576103d561040e565b5b80604052505050565b7f4e487b7100000000000000000000000000000000000000000000000000000000600052602260045260246000fd5b7f4e487b7100000000000000000000000000000000000000000000000000000000600052604160045260246000fd5b6000601f19601f830116905091905056fea2646970667358221220dfca42c4af890c67240984809970b565dd0ea2af6e3c501bd77a534fa3d1b9cd64736f6c63430008040033",
  "linkReferences": {},
  "deployedLinkReferences": {}
}