{
  "_format": "hh-sol-artifact-1",
  "contractName": "RSU",
  "sourceName": "contracts/RSU.sol",
  "abi": [
    {
      "inputs": [],
      "stateMutability": "nonpayable",
      "type": "constructor"
    },
    {
      "inputs": [
        {
          "internalType": "address",
          "name": "_addr",
          "type": "address"
        }
      ],
      "name": "addVehicle",
      "outputs": [],
      "stateMutability": "nonpayable",
      "type": "function"
    },
    {
      "inputs": [
        {
          "internalType": "string",
          "name": "message",
          "type": "string"
        }
      ],
      "name": "getMessageId",
      "outputs": [
        {
          "internalType": "uint256",
          "name": "",
          "type": "uint256"
        }
      ],
      "stateMutability": "view",
      "type": "function"
    },
    {
      "inputs": [
        {
          "internalType": "address",
          "name": "_senderAddress",
          "type": "address"
        }
      ],
      "name": "getTrustValue",
      "outputs": [
        {
          "internalType": "int256",
          "name": "",
          "type": "int256"
        }
      ],
      "stateMutability": "view",
      "type": "function"
    },
    {
      "inputs": [
        {
          "internalType": "address",
          "name": "_addr",
          "type": "address"
        }
      ],
      "name": "getVehicleId",
      "outputs": [
        {
          "internalType": "uint256",
          "name": "",
          "type": "uint256"
        }
      ],
      "stateMutability": "view",
      "type": "function"
    },
    {
      "inputs": [
        {
          "internalType": "address",
          "name": "_senderAddress",
          "type": "address"
        }
      ],
      "name": "getVehicleInfo",
      "outputs": [
        {
          "internalType": "address",
          "name": "",
          "type": "address"
        },
        {
          "internalType": "int256",
          "name": "",
          "type": "int256"
        },
        {
          "internalType": "bool",
          "name": "",
          "type": "bool"
        }
      ],
      "stateMutability": "view",
      "type": "function"
    },
    {
      "inputs": [
        {
          "components": [
            {
              "internalType": "uint256",
              "name": "vId",
              "type": "uint256"
            },
            {
              "internalType": "int256",
              "name": "rating",
              "type": "int256"
            }
          ],
          "internalType": "struct RSU.ratingRequest[]",
          "name": "inputRatings",
          "type": "tuple[]"
        },
        {
          "internalType": "string",
          "name": "message",
          "type": "string"
        }
      ],
      "name": "sendRatings",
      "outputs": [],
      "stateMutability": "nonpayable",
      "type": "function"
    }
  ],
  "bytecode": "0x60806040523480156200001157600080fd5b50336000806101000a81548173ffffffffffffffffffffffffffffffffffffffff021916908373ffffffffffffffffffffffffffffffffffffffff160217905550600260405180606001604052803373ffffffffffffffffffffffffffffffffffffffff1681526020016000815260200160011515815250908060018154018082558091505060019003906000526020600020906003020160009091909190915060008201518160000160006101000a81548173ffffffffffffffffffffffffffffffffffffffff021916908373ffffffffffffffffffffffffffffffffffffffff1602179055506020820151816001015560408201518160020160006101000a81548160ff02191690831515021790555050506001600360405162000137906200030b565b908152602001604051809103902081905550600260036040516200015b9062000339565b9081526020016040518091039020819055506003806040516200017e90620002f4565b90815260200160405180910390208190555060046003604051620001a29062000322565b90815260200160405180910390208190555060056003604051620001c69062000350565b90815260200160405180910390208190555060066003604051620001ea9062000367565b90815260200160405180910390208190555060076001819055506200047f565b6000620002196011836200037e565b9150620002268262000389565b601182019050919050565b600062000240600b836200037e565b91506200024d82620003b2565b600b82019050919050565b600062000267600c836200037e565b91506200027482620003db565b600c82019050919050565b60006200028e6008836200037e565b91506200029b8262000404565b600882019050919050565b6000620002b56004836200037e565b9150620002c2826200042d565b600482019050919050565b6000620002dc6009836200037e565b9150620002e98262000456565b600982019050919050565b600062000301826200020a565b9150819050919050565b6000620003188262000231565b9150819050919050565b60006200032f8262000258565b9150819050919050565b600062000346826200027f565b9150819050919050565b60006200035d82620002a6565b9150819050919050565b60006200037482620002cd565b9150819050919050565b600081905092915050565b7f636f6e737472756374696f6e20776f726b000000000000000000000000000000600082015250565b7f74726166666963206a616d000000000000000000000000000000000000000000600082015250565b7f726f61642064616d616765640000000000000000000000000000000000000000600082015250565b7f6163636964656e74000000000000000000000000000000000000000000000000600082015250565b7f7361666500000000000000000000000000000000000000000000000000000000600082015250565b7f726564206c696768740000000000000000000000000000000000000000000000600082015250565b611ed6806200048f6000396000f3fe608060405234801561001057600080fd5b50600436106100625760003560e01c806334f49c76146100675780633f1aafe31461009757806360de9744146100c757806384628616146100e3578063badc0061146100ff578063ce76a05e14610131575b600080fd5b610081600480360381019061007c9190611500565b610161565b60405161008e91906117a9565b60405180910390f35b6100b160048036038101906100ac919061146b565b610189565b6040516100be91906117a9565b60405180910390f35b6100e160048036038101906100dc9190611494565b610345565b005b6100fd60048036038101906100f8919061146b565b610aa8565b005b6101196004803603810190610114919061146b565b610d4c565b60405161012893929190611697565b60405180910390f35b61014b6004803603810190610146919061146b565b610ff2565b60405161015891906116ce565b60405180910390f35b60006003826040516101739190611680565b9081526020016040518091039020549050919050565b60008160011515600460008373ffffffffffffffffffffffffffffffffffffffff1673ffffffffffffffffffffffffffffffffffffffff16815260200190815260200160002060009054906101000a900460ff1615151461021f576040517f08c379a000000000000000000000000000000000000000000000000000000000815260040161021690611729565b60405180910390fd5b600015156002600560008473ffffffffffffffffffffffffffffffffffffffff1673ffffffffffffffffffffffffffffffffffffffff168152602001908152602001600020548154811061029c577f4e487b7100000000000000000000000000000000000000000000000000000000600052603260045260246000fd5b906000526020600020906003020160020160009054906101000a900460ff161515146102fd576040517f08c379a00000000000000000000000000000000000000000000000000000000081526004016102f490611749565b60405180910390fd5b600560008473ffffffffffffffffffffffffffffffffffffffff1673ffffffffffffffffffffffffffffffffffffffff16815260200190815260200160002054915050919050565b3360011515600460008373ffffffffffffffffffffffffffffffffffffffff1673ffffffffffffffffffffffffffffffffffffffff16815260200190815260200160002060009054906101000a900460ff161515146103d9576040517f08c379a00000000000000000000000000000000000000000000000000000000081526004016103d090611729565b60405180910390fd5b600015156002600560008473ffffffffffffffffffffffffffffffffffffffff1673ffffffffffffffffffffffffffffffffffffffff1681526020019081526020016000205481548110610456577f4e487b7100000000000000000000000000000000000000000000000000000000600052603260045260246000fd5b906000526020600020906003020160020160009054906101000a900460ff161515146104b7576040517f08c379a00000000000000000000000000000000000000000000000000000000081526004016104ae90611749565b60405180910390fd5b8160006003826040516104ca9190611680565b90815260200160405180910390205411610519576040517f08c379a000000000000000000000000000000000000000000000000000000000815260040161051090611709565b60405180910390fd5b60015460038260405161052c9190611680565b9081526020016040518091039020541061057b576040517f08c379a000000000000000000000000000000000000000000000000000000000815260040161057290611709565b60405180910390fd5b60008060005b865181101561085c5760008782815181106105c5577f4e487b7100000000000000000000000000000000000000000000000000000000600052603260045260246000fd5b60200260200101516000015114806106255750600280549050878281518110610617577f4e487b7100000000000000000000000000000000000000000000000000000000600052603260045260246000fd5b602002602001015160000151115b1561067a576000878281518110610665577f4e487b7100000000000000000000000000000000000000000000000000000000600052603260045260246000fd5b60200260200101516020018181525050610849565b60028782815181106106b5577f4e487b7100000000000000000000000000000000000000000000000000000000600052603260045260246000fd5b602002602001015160000151815481106106f8577f4e487b7100000000000000000000000000000000000000000000000000000000600052603260045260246000fd5b906000526020600020906003020160020160009054906101000a900460ff161561076c576000878281518110610757577f4e487b7100000000000000000000000000000000000000000000000000000000600052603260045260246000fd5b60200260200101516020018181525050610849565b60018782815181106107a7577f4e487b7100000000000000000000000000000000000000000000000000000000600052603260045260246000fd5b60200260200101516020015114156107cc5782806107c490611c0f565b935050610848565b7fffffffffffffffffffffffffffffffffffffffffffffffffffffffffffffffff878281518110610826577f4e487b7100000000000000000000000000000000000000000000000000000000600052603260045260246000fd5b602002602001015160200151141561084757818061084390611c0f565b9250505b5b5b808061085490611c58565b915050610581565b5060005b8651811015610a9f5760008782815181106108a4577f4e487b7100000000000000000000000000000000000000000000000000000000600052603260045260246000fd5b60200260200101516020015114156108bb57610a8c565b60008782815181106108f6577f4e487b7100000000000000000000000000000000000000000000000000000000600052603260045260246000fd5b60200260200101516000015190506000838585610913919061186d565b8561091e9190611901565b610928919061196b565b858587610935919061186d565b876109409190611901565b61094a919061196b565b6109549190611a82565b90508385610962919061186d565b8161096d9190611901565b905080600283815481106109aa577f4e487b7100000000000000000000000000000000000000000000000000000000600052603260045260246000fd5b906000526020600020906003020160010160008282546109ca919061186d565b92505081905550600060028381548110610a0d577f4e487b7100000000000000000000000000000000000000000000000000000000600052603260045260246000fd5b90600052602060002090600302016001015413610a8957600160028381548110610a60577f4e487b7100000000000000000000000000000000000000000000000000000000600052603260045260246000fd5b906000526020600020906003020160020160006101000a81548160ff0219169083151502179055505b50505b8080610a9790611c58565b915050610860565b50505050505050565b60008054906101000a900473ffffffffffffffffffffffffffffffffffffffff1673ffffffffffffffffffffffffffffffffffffffff163373ffffffffffffffffffffffffffffffffffffffff1614610b36576040517f08c379a0000000000000000000000000000000000000000000000000000000008152600401610b2d90611789565b60405180910390fd5b60001515600460008373ffffffffffffffffffffffffffffffffffffffff1673ffffffffffffffffffffffffffffffffffffffff16815260200190815260200160002060009054906101000a900460ff16151514610bc9576040517f08c379a0000000000000000000000000000000000000000000000000000000008152600401610bc090611769565b60405180910390fd5b6001600460008373ffffffffffffffffffffffffffffffffffffffff1673ffffffffffffffffffffffffffffffffffffffff16815260200190815260200160002060006101000a81548160ff021916908315150217905550600260405180606001604052808373ffffffffffffffffffffffffffffffffffffffff168152602001600a815260200160001515815250908060018154018082558091505060019003906000526020600020906003020160009091909190915060008201518160000160006101000a81548173ffffffffffffffffffffffffffffffffffffffff021916908373ffffffffffffffffffffffffffffffffffffffff1602179055506020820151816001015560408201518160020160006101000a81548160ff02191690831515021790555050506001600280549050610d069190611b16565b600560008373ffffffffffffffffffffffffffffffffffffffff1673ffffffffffffffffffffffffffffffffffffffff1681526020019081526020016000208190555050565b60008060008360011515600460008373ffffffffffffffffffffffffffffffffffffffff1673ffffffffffffffffffffffffffffffffffffffff16815260200190815260200160002060009054906101000a900460ff16151514610de5576040517f08c379a0000000000000000000000000000000000000000000000000000000008152600401610ddc90611729565b60405180910390fd5b600015156002600560008473ffffffffffffffffffffffffffffffffffffffff1673ffffffffffffffffffffffffffffffffffffffff1681526020019081526020016000205481548110610e62577f4e487b7100000000000000000000000000000000000000000000000000000000600052603260045260246000fd5b906000526020600020906003020160020160009054906101000a900460ff16151514610ec3576040517f08c379a0000000000000000000000000000000000000000000000000000000008152600401610eba90611749565b60405180910390fd5b60006002600560008873ffffffffffffffffffffffffffffffffffffffff1673ffffffffffffffffffffffffffffffffffffffff1681526020019081526020016000205481548110610f3e577f4e487b7100000000000000000000000000000000000000000000000000000000600052603260045260246000fd5b90600052602060002090600302016040518060600160405290816000820160009054906101000a900473ffffffffffffffffffffffffffffffffffffffff1673ffffffffffffffffffffffffffffffffffffffff1673ffffffffffffffffffffffffffffffffffffffff168152602001600182015481526020016002820160009054906101000a900460ff161515151581525050905080600001518160200151826040015194509450945050509193909250565b60008160011515600460008373ffffffffffffffffffffffffffffffffffffffff1673ffffffffffffffffffffffffffffffffffffffff16815260200190815260200160002060009054906101000a900460ff16151514611088576040517f08c379a000000000000000000000000000000000000000000000000000000000815260040161107f90611729565b60405180910390fd5b600015156002600560008473ffffffffffffffffffffffffffffffffffffffff1673ffffffffffffffffffffffffffffffffffffffff1681526020019081526020016000205481548110611105577f4e487b7100000000000000000000000000000000000000000000000000000000600052603260045260246000fd5b906000526020600020906003020160020160009054906101000a900460ff16151514611166576040517f08c379a000000000000000000000000000000000000000000000000000000000815260040161115d90611749565b60405180910390fd5b60011515600460003373ffffffffffffffffffffffffffffffffffffffff1673ffffffffffffffffffffffffffffffffffffffff16815260200190815260200160002060009054906101000a900460ff1615151480611210575060008054906101000a900473ffffffffffffffffffffffffffffffffffffffff1673ffffffffffffffffffffffffffffffffffffffff163373ffffffffffffffffffffffffffffffffffffffff16145b61124f576040517f08c379a0000000000000000000000000000000000000000000000000000000008152600401611246906116e9565b60405180910390fd5b6002600560008573ffffffffffffffffffffffffffffffffffffffff1673ffffffffffffffffffffffffffffffffffffffff16815260200190815260200160002054815481106112c8577f4e487b7100000000000000000000000000000000000000000000000000000000600052603260045260246000fd5b906000526020600020906003020160010154915050919050565b60006112f56112f0846117e9565b6117c4565b9050808382526020820190508285604086028201111561131457600080fd5b60005b85811015611344578161132a888261140a565b845260208401935060408301925050600181019050611317565b5050509392505050565b600061136161135c84611815565b6117c4565b90508281526020810184848401111561137957600080fd5b611384848285611b9c565b509392505050565b60008135905061139b81611e5b565b92915050565b600082601f8301126113b257600080fd5b81356113c28482602086016112e2565b91505092915050565b6000813590506113da81611e72565b92915050565b600082601f8301126113f157600080fd5b813561140184826020860161134e565b91505092915050565b60006040828403121561141c57600080fd5b61142660406117c4565b9050600061143684828501611456565b600083015250602061144a848285016113cb565b60208301525092915050565b60008135905061146581611e89565b92915050565b60006020828403121561147d57600080fd5b600061148b8482850161138c565b91505092915050565b600080604083850312156114a757600080fd5b600083013567ffffffffffffffff8111156114c157600080fd5b6114cd858286016113a1565b925050602083013567ffffffffffffffff8111156114ea57600080fd5b6114f6858286016113e0565b9150509250929050565b60006020828403121561151257600080fd5b600082013567ffffffffffffffff81111561152c57600080fd5b611538848285016113e0565b91505092915050565b61154a81611b4a565b82525050565b61155981611b5c565b82525050565b61156881611b68565b82525050565b600061157982611846565b6115838185611862565b9350611593818560208601611bab565b80840191505092915050565b60006115ac602083611851565b91506115b782611d3f565b602082019050919050565b60006115cf602b83611851565b91506115da82611d68565b604082019050919050565b60006115f2601983611851565b91506115fd82611db7565b602082019050919050565b6000611615601483611851565b915061162082611de0565b602082019050919050565b6000611638601c83611851565b915061164382611e09565b602082019050919050565b600061165b601483611851565b915061166682611e32565b602082019050919050565b61167a81611b92565b82525050565b600061168c828461156e565b915081905092915050565b60006060820190506116ac6000830186611541565b6116b9602083018561155f565b6116c66040830184611550565b949350505050565b60006020820190506116e3600083018461155f565b92915050565b600060208201905081810360008301526117028161159f565b9050919050565b60006020820190508181036000830152611722816115c2565b9050919050565b60006020820190508181036000830152611742816115e5565b9050919050565b6000602082019050818103600083015261176281611608565b9050919050565b600060208201905081810360008301526117828161162b565b9050919050565b600060208201905081810360008301526117a28161164e565b9050919050565b60006020820190506117be6000830184611671565b92915050565b60006117ce6117df565b90506117da8282611bde565b919050565b6000604051905090565b600067ffffffffffffffff82111561180457611803611cff565b5b602082029050602081019050919050565b600067ffffffffffffffff8211156118305761182f611cff565b5b61183982611d2e565b9050602081019050919050565b600081519050919050565b600082825260208201905092915050565b600081905092915050565b600061187882611b68565b915061188383611b68565b9250817f7fffffffffffffffffffffffffffffffffffffffffffffffffffffffffffffff038313600083121516156118be576118bd611ca1565b5b817f80000000000000000000000000000000000000000000000000000000000000000383126000831216156118f6576118f5611ca1565b5b828201905092915050565b600061190c82611b68565b915061191783611b68565b92508261192757611926611cd0565b5b600160000383147f8000000000000000000000000000000000000000000000000000000000000000831416156119605761195f611ca1565b5b828205905092915050565b600061197682611b68565b915061198183611b68565b9250827f7fffffffffffffffffffffffffffffffffffffffffffffffffffffffffffffff04821160008413600084131616156119c0576119bf611ca1565b5b817f800000000000000000000000000000000000000000000000000000000000000005831260008412600084131616156119fd576119fc611ca1565b5b827f80000000000000000000000000000000000000000000000000000000000000000582126000841360008412161615611a3a57611a39611ca1565b5b827f7fffffffffffffffffffffffffffffffffffffffffffffffffffffffffffffff0582126000841260008412161615611a7757611a76611ca1565b5b828202905092915050565b6000611a8d82611b68565b9150611a9883611b68565b9250827f800000000000000000000000000000000000000000000000000000000000000001821260008412151615611ad357611ad2611ca1565b5b827f7fffffffffffffffffffffffffffffffffffffffffffffffffffffffffffffff018213600084121615611b0b57611b0a611ca1565b5b828203905092915050565b6000611b2182611b92565b9150611b2c83611b92565b925082821015611b3f57611b3e611ca1565b5b828203905092915050565b6000611b5582611b72565b9050919050565b60008115159050919050565b6000819050919050565b600073ffffffffffffffffffffffffffffffffffffffff82169050919050565b6000819050919050565b82818337600083830152505050565b60005b83811015611bc9578082015181840152602081019050611bae565b83811115611bd8576000848401525b50505050565b611be782611d2e565b810181811067ffffffffffffffff82111715611c0657611c05611cff565b5b80604052505050565b6000611c1a82611b68565b91507f7fffffffffffffffffffffffffffffffffffffffffffffffffffffffffffffff821415611c4d57611c4c611ca1565b5b600182019050919050565b6000611c6382611b92565b91507fffffffffffffffffffffffffffffffffffffffffffffffffffffffffffffffff821415611c9657611c95611ca1565b5b600182019050919050565b7f4e487b7100000000000000000000000000000000000000000000000000000000600052601160045260246000fd5b7f4e487b7100000000000000000000000000000000000000000000000000000000600052601260045260246000fd5b7f4e487b7100000000000000000000000000000000000000000000000000000000600052604160045260246000fd5b6000601f19601f8301169050919050565b7f53656e646572206973206e6f7420612076616c6964204964656e746974792121600082015250565b7f4d657373616765206e6f7420766572696669656420627920636f6e6365726e6560008201527f6420617574686f72697479000000000000000000000000000000000000000000602082015250565b7f56656869636c65206e6f74205265676973746572656421212100000000000000600082015250565b7f56656869636c65206973205265766f6b65642121000000000000000000000000600082015250565b7f56656869636c6520416c72656164792052656769737465726564212100000000600082015250565b7f4e6f74205472616e706f72742041646d696e2121000000000000000000000000600082015250565b611e6481611b4a565b8114611e6f57600080fd5b50565b611e7b81611b68565b8114611e8657600080fd5b50565b611e9281611b92565b8114611e9d57600080fd5b5056fea2646970667358221220d0bd41aa1f1cc4870d225d0ab7777597a18658c025b82f147d6ce6ab0f66d50864736f6c63430008040033",
  "linkReferences": {},
  "deployedLinkReferences": {}
}