{
  "_format": "hh-sol-artifact-1",
  "contractName": "RSU",
  "sourceName": "contracts/RSU.sol",
  "abi": [
    {
      "inputs": [],
      "stateMutability": "nonpayable",
      "type": "constructor"
    },
    {
      "inputs": [
        {
          "internalType": "string",
          "name": "message",
          "type": "string"
        }
      ],
      "name": "addMsg",
      "outputs": [],
      "stateMutability": "nonpayable",
      "type": "function"
    },
    {
      "inputs": [
        {
          "internalType": "address",
          "name": "_addr",
          "type": "address"
        }
      ],
      "name": "addVehicle",
      "outputs": [],
      "stateMutability": "nonpayable",
      "type": "function"
    },
    {
      "inputs": [
        {
          "internalType": "string",
          "name": "message",
          "type": "string"
        }
      ],
      "name": "getMessageId",
      "outputs": [
        {
          "internalType": "uint256",
          "name": "",
          "type": "uint256"
        }
      ],
      "stateMutability": "view",
      "type": "function"
    },
    {
      "inputs": [
        {
          "internalType": "address",
          "name": "_senderAddress",
          "type": "address"
        }
      ],
      "name": "getTrustValue",
      "outputs": [
        {
          "internalType": "int256",
          "name": "",
          "type": "int256"
        }
      ],
      "stateMutability": "view",
      "type": "function"
    },
    {
      "inputs": [
        {
          "internalType": "address",
          "name": "_addr",
          "type": "address"
        }
      ],
      "name": "getVehicleId",
      "outputs": [
        {
          "internalType": "uint256",
          "name": "",
          "type": "uint256"
        }
      ],
      "stateMutability": "view",
      "type": "function"
    },
    {
      "inputs": [
        {
          "internalType": "address",
          "name": "_senderAddress",
          "type": "address"
        }
      ],
      "name": "getVehicleInfo",
      "outputs": [
        {
          "internalType": "address",
          "name": "",
          "type": "address"
        },
        {
          "internalType": "int256",
          "name": "",
          "type": "int256"
        },
        {
          "internalType": "bool",
          "name": "",
          "type": "bool"
        }
      ],
      "stateMutability": "view",
      "type": "function"
    },
    {
      "inputs": [
        {
          "internalType": "uint256",
          "name": "",
          "type": "uint256"
        }
      ],
      "name": "msgs",
      "outputs": [
        {
          "internalType": "string",
          "name": "",
          "type": "string"
        }
      ],
      "stateMutability": "view",
      "type": "function"
    },
    {
      "inputs": [],
      "name": "numberOfMessages",
      "outputs": [
        {
          "internalType": "uint256",
          "name": "",
          "type": "uint256"
        }
      ],
      "stateMutability": "view",
      "type": "function"
    },
    {
      "inputs": [
        {
          "components": [
            {
              "internalType": "address",
              "name": "addr",
              "type": "address"
            },
            {
              "internalType": "int256",
              "name": "rating",
              "type": "int256"
            }
          ],
          "internalType": "struct RSU.ratingArray[]",
          "name": "inputRatings",
          "type": "tuple[]"
        },
        {
          "internalType": "string",
          "name": "eventHash",
          "type": "string"
        },
        {
          "internalType": "string",
          "name": "message",
          "type": "string"
        },
        {
          "internalType": "uint256",
          "name": "timeStamp",
          "type": "uint256"
        }
      ],
      "name": "sendRatings",
      "outputs": [],
      "stateMutability": "nonpayable",
      "type": "function"
    },
    {
      "inputs": [],
      "name": "sessionEnd",
      "outputs": [],
      "stateMutability": "nonpayable",
      "type": "function"
    },
    {
      "inputs": [],
      "name": "sessionStart",
      "outputs": [
        {
          "internalType": "uint256",
          "name": "",
          "type": "uint256"
        }
      ],
      "stateMutability": "view",
      "type": "function"
    }
  ],
  "bytecode": "0x60806040523480156200001157600080fd5b50336000806101000a81548173ffffffffffffffffffffffffffffffffffffffff021916908373ffffffffffffffffffffffffffffffffffffffff1602179055506000600181905550600460405180606001604052803373ffffffffffffffffffffffffffffffffffffffff1681526020016000815260200160011515815250908060018154018082558091505060019003906000526020600020906003020160009091909190915060008201518160000160006101000a81548173ffffffffffffffffffffffffffffffffffffffff021916908373ffffffffffffffffffffffffffffffffffffffff1602179055506020820151816001015560408201518160020160006101000a81548160ff0219169083151502179055505050600160076040516200013f9062000664565b908152602001604051809103902081905550600680600181540180825580915050600190039060005260206000200160006040518060400160405280600b81526020017f74726166666963206a616d00000000000000000000000000000000000000000081525090919091509080519060200190620001c0929190620004b3565b5060026007604051620001d39062000692565b908152602001604051809103902081905550600680600181540180825580915050600190039060005260206000200160006040518060400160405280600881526020017f6163636964656e740000000000000000000000000000000000000000000000008152509091909150908051906020019062000254929190620004b3565b506003600760405162000267906200064d565b908152602001604051809103902081905550600680600181540180825580915050600190039060005260206000200160006040518060400160405280601181526020017f636f6e737472756374696f6e20776f726b00000000000000000000000000000081525090919091509080519060200190620002e8929190620004b3565b5060046007604051620002fb906200067b565b908152602001604051809103902081905550600680600181540180825580915050600190039060005260206000200160006040518060400160405280600c81526020017f726f61642064616d616765640000000000000000000000000000000000000000815250909190915090805190602001906200037c929190620004b3565b50600560076040516200038f90620006a9565b908152602001604051809103902081905550600680600181540180825580915050600190039060005260206000200160006040518060400160405280600481526020017f73616665000000000000000000000000000000000000000000000000000000008152509091909150908051906020019062000410929190620004b3565b50600660076040516200042390620006c0565b908152602001604051809103902081905550600680600181540180825580915050600190039060005260206000200160006040518060400160405280600981526020017f726564206c69676874000000000000000000000000000000000000000000000081525090919091509080519060200190620004a4929190620004b3565b5060076005819055506200083d565b828054620004c190620006e2565b90600052602060002090601f016020900481019282620004e5576000855562000531565b82601f106200050057805160ff191683800117855562000531565b8280016001018555821562000531579182015b828111156200053057825182559160200191906001019062000513565b5b50905062000540919062000544565b5090565b5b808211156200055f57600081600090555060010162000545565b5090565b600062000572601183620006d7565b91506200057f8262000747565b601182019050919050565b600062000599600b83620006d7565b9150620005a68262000770565b600b82019050919050565b6000620005c0600c83620006d7565b9150620005cd8262000799565b600c82019050919050565b6000620005e7600883620006d7565b9150620005f482620007c2565b600882019050919050565b60006200060e600483620006d7565b91506200061b82620007eb565b600482019050919050565b600062000635600983620006d7565b9150620006428262000814565b600982019050919050565b60006200065a8262000563565b9150819050919050565b600062000671826200058a565b9150819050919050565b60006200068882620005b1565b9150819050919050565b60006200069f82620005d8565b9150819050919050565b6000620006b682620005ff565b9150819050919050565b6000620006cd8262000626565b9150819050919050565b600081905092915050565b60006002820490506001821680620006fb57607f821691505b6020821081141562000712576200071162000718565b5b50919050565b7f4e487b7100000000000000000000000000000000000000000000000000000000600052602260045260246000fd5b7f636f6e737472756374696f6e20776f726b000000000000000000000000000000600082015250565b7f74726166666963206a616d000000000000000000000000000000000000000000600082015250565b7f726f61642064616d616765640000000000000000000000000000000000000000600082015250565b7f6163636964656e74000000000000000000000000000000000000000000000000600082015250565b7f7361666500000000000000000000000000000000000000000000000000000000600082015250565b7f726564206c696768740000000000000000000000000000000000000000000000600082015250565b613440806200084d6000396000f3fe608060405234801561001057600080fd5b50600436106100a95760003560e01c80636ca9ec47116100715780636ca9ec47146101785780638462861614610182578063ad9aedb81461019e578063badc0061146101ba578063ce76a05e146101ec578063fbda68e21461021c576100a9565b80630ab37d7f146100ae57806332079955146100ca57806334f49c76146100fa5780633f1aafe31461012a578063676ac1e71461015a575b600080fd5b6100c860048036038101906100c391906127b6565b61023a565b005b6100e460048036038101906100df91906128a2565b610abb565b6040516100f19190612b65565b60405180910390f35b610114600480360381019061010f9190612861565b610b67565b6040516101219190612c67565b60405180910390f35b610144600480360381019061013f919061278d565b610b8f565b6040516101519190612c67565b60405180910390f35b610162610d4b565b60405161016f9190612c67565b60405180910390f35b610180610d51565b005b61019c6004803603810190610197919061278d565b611ac4565b005b6101b860048036038101906101b39190612861565b611d69565b005b6101d460048036038101906101cf919061278d565b611ed6565b6040516101e393929190612b13565b60405180910390f35b6102066004803603810190610201919061278d565b61217c565b6040516102139190612b4a565b60405180910390f35b61022461246c565b6040516102319190612c67565b60405180910390f35b3360011515600860008373ffffffffffffffffffffffffffffffffffffffff1673ffffffffffffffffffffffffffffffffffffffff16815260200190815260200160002060009054906101000a900460ff161515146102ce576040517f08c379a00000000000000000000000000000000000000000000000000000000081526004016102c590612bc7565b60405180910390fd5b600015156004600960008473ffffffffffffffffffffffffffffffffffffffff1673ffffffffffffffffffffffffffffffffffffffff168152602001908152602001600020548154811061034b577f4e487b7100000000000000000000000000000000000000000000000000000000600052603260045260246000fd5b906000526020600020906003020160020160009054906101000a900460ff161515146103ac576040517f08c379a00000000000000000000000000000000000000000000000000000000081526004016103a390612be7565b60405180910390fd5b8260006007826040516103bf9190612ae5565b9081526020016040518091039020541161040e576040517f08c379a000000000000000000000000000000000000000000000000000000000815260040161040590612ba7565b60405180910390fd5b6005546007826040516104219190612ae5565b90815260200160405180910390205410610470576040517f08c379a000000000000000000000000000000000000000000000000000000000815260040161046790612ba7565b60405180910390fd5b826202bf206001546104829190612dd4565b116104975761048f610d51565b826001819055505b60006002866040516104a99190612ae5565b90815260200160405180910390208054905014156104fe576003859080600181540180825580915050600190039060005260206000200160009091909190915090805190602001906104fc929190612472565b505b60005b8651811015610ab257600060096000898481518110610549577f4e487b7100000000000000000000000000000000000000000000000000000000600052603260045260246000fd5b60200260200101516000015173ffffffffffffffffffffffffffffffffffffffff1673ffffffffffffffffffffffffffffffffffffffff1681526020019081526020016000205414806106235750600480549050600960008984815181106105da577f4e487b7100000000000000000000000000000000000000000000000000000000600052603260045260246000fd5b60200260200101516000015173ffffffffffffffffffffffffffffffffffffffff1673ffffffffffffffffffffffffffffffffffffffff16815260200190815260200160002054115b15610678576000878281518110610663577f4e487b7100000000000000000000000000000000000000000000000000000000600052603260045260246000fd5b60200260200101516020018181525050610a9f565b6004600960008984815181106106b7577f4e487b7100000000000000000000000000000000000000000000000000000000600052603260045260246000fd5b60200260200101516000015173ffffffffffffffffffffffffffffffffffffffff1673ffffffffffffffffffffffffffffffffffffffff1681526020019081526020016000205481548110610735577f4e487b7100000000000000000000000000000000000000000000000000000000600052603260045260246000fd5b906000526020600020906003020160020160009054906101000a900460ff16156107a9576000878281518110610794577f4e487b7100000000000000000000000000000000000000000000000000000000600052603260045260246000fd5b60200260200101516020018181525050610a9f565b6000805b6002886040516107bd9190612ae5565b9081526020016040518091039020805490508110156109b35788838151811061080f577f4e487b7100000000000000000000000000000000000000000000000000000000600052603260045260246000fd5b60200260200101516000015173ffffffffffffffffffffffffffffffffffffffff166002896040516108419190612ae5565b90815260200160405180910390208281548110610887577f4e487b7100000000000000000000000000000000000000000000000000000000600052603260045260246000fd5b906000526020600020906002020160000160009054906101000a900473ffffffffffffffffffffffffffffffffffffffff1673ffffffffffffffffffffffffffffffffffffffff1614156109a05760019150888381518110610912577f4e487b7100000000000000000000000000000000000000000000000000000000600052603260045260246000fd5b60200260200101516020015160028960405161092e9190612ae5565b90815260200160405180910390208281548110610974577f4e487b7100000000000000000000000000000000000000000000000000000000600052603260045260246000fd5b906000526020600020906002020160010160008282546109949190612d40565b925050819055506109b3565b80806109ab9061316a565b9150506107ad565b50600015158115151415610a9d576002876040516109d19190612ae5565b9081526020016040518091039020888381518110610a18577f4e487b7100000000000000000000000000000000000000000000000000000000600052603260045260246000fd5b6020026020010151908060018154018082558091505060019003906000526020600020906002020160009091909190915060008201518160000160006101000a81548173ffffffffffffffffffffffffffffffffffffffff021916908373ffffffffffffffffffffffffffffffffffffffff1602179055506020820151816001015550505b505b8080610aaa9061316a565b915050610501565b50505050505050565b60068181548110610acb57600080fd5b906000526020600020016000915090508054610ae690613107565b80601f0160208091040260200160405190810160405280929190818152602001828054610b1290613107565b8015610b5f5780601f10610b3457610100808354040283529160200191610b5f565b820191906000526020600020905b815481529060010190602001808311610b4257829003601f168201915b505050505081565b6000600782604051610b799190612ae5565b9081526020016040518091039020549050919050565b60008160011515600860008373ffffffffffffffffffffffffffffffffffffffff1673ffffffffffffffffffffffffffffffffffffffff16815260200190815260200160002060009054906101000a900460ff16151514610c25576040517f08c379a0000000000000000000000000000000000000000000000000000000008152600401610c1c90612bc7565b60405180910390fd5b600015156004600960008473ffffffffffffffffffffffffffffffffffffffff1673ffffffffffffffffffffffffffffffffffffffff1681526020019081526020016000205481548110610ca2577f4e487b7100000000000000000000000000000000000000000000000000000000600052603260045260246000fd5b906000526020600020906003020160020160009054906101000a900460ff16151514610d03576040517f08c379a0000000000000000000000000000000000000000000000000000000008152600401610cfa90612be7565b60405180910390fd5b600960008473ffffffffffffffffffffffffffffffffffffffff1673ffffffffffffffffffffffffffffffffffffffff16815260200190815260200160002054915050919050565b60015481565b60005b600380549050811015611ab35760008060005b600260038581548110610da3577f4e487b7100000000000000000000000000000000000000000000000000000000600052603260045260246000fd5b90600052602060002001604051610dba9190612afc565b90815260200160405180910390208054905081101561100f576000600260038681548110610e11577f4e487b7100000000000000000000000000000000000000000000000000000000600052603260045260246000fd5b90600052602060002001604051610e289190612afc565b90815260200160405180910390208281548110610e6e577f4e487b7100000000000000000000000000000000000000000000000000000000600052603260045260246000fd5b9060005260206000209060020201600101541215610f4357600260038581548110610ec2577f4e487b7100000000000000000000000000000000000000000000000000000000600052603260045260246000fd5b90600052602060002001604051610ed99190612afc565b90815260200160405180910390208181548110610f1f577f4e487b7100000000000000000000000000000000000000000000000000000000600052603260045260246000fd5b90600052602060002090600202016001015482610f3c9190612fab565b9150610ffc565b600260038581548110610f7f577f4e487b7100000000000000000000000000000000000000000000000000000000600052603260045260246000fd5b90600052602060002001604051610f969190612afc565b90815260200160405180910390208181548110610fdc577f4e487b7100000000000000000000000000000000000000000000000000000000600052603260045260246000fd5b90600052602060002090600202016001015483610ff99190612d40565b92505b80806110079061316a565b915050610d67565b506000818361101e9190612d40565b828361102a9190612e94565b84856110369190612e94565b6110409190612d40565b61104a9190612e94565b8283846110579190612e94565b6110619190612e94565b84858661106e9190612e94565b6110789190612e94565b6110829190612fab565b6101f461108f9190612e94565b6110999190612e2a565b905060005b6002600386815481106110da577f4e487b7100000000000000000000000000000000000000000000000000000000600052603260045260246000fd5b906000526020600020016040516110f19190612afc565b908152602001604051809103902080549050811015611a2f576000600260038781548110611148577f4e487b7100000000000000000000000000000000000000000000000000000000600052603260045260246000fd5b9060005260206000200160405161115f9190612afc565b908152602001604051809103902082815481106111a5577f4e487b7100000000000000000000000000000000000000000000000000000000600052603260045260246000fd5b906000526020600020906002020160010154136115f65781600460096000600260038a815481106111ff577f4e487b7100000000000000000000000000000000000000000000000000000000600052603260045260246000fd5b906000526020600020016040516112169190612afc565b9081526020016040518091039020858154811061125c577f4e487b7100000000000000000000000000000000000000000000000000000000600052603260045260246000fd5b906000526020600020906002020160000160009054906101000a900473ffffffffffffffffffffffffffffffffffffffff1673ffffffffffffffffffffffffffffffffffffffff1673ffffffffffffffffffffffffffffffffffffffff1681526020019081526020016000205481548110611300577f4e487b7100000000000000000000000000000000000000000000000000000000600052603260045260246000fd5b906000526020600020906003020160010160008282546113209190612fab565b925050819055506000600460096000600260038a8154811061136b577f4e487b7100000000000000000000000000000000000000000000000000000000600052603260045260246000fd5b906000526020600020016040516113829190612afc565b908152602001604051809103902085815481106113c8577f4e487b7100000000000000000000000000000000000000000000000000000000600052603260045260246000fd5b906000526020600020906002020160000160009054906101000a900473ffffffffffffffffffffffffffffffffffffffff1673ffffffffffffffffffffffffffffffffffffffff1673ffffffffffffffffffffffffffffffffffffffff168152602001908152602001600020548154811061146c577f4e487b7100000000000000000000000000000000000000000000000000000000600052603260045260246000fd5b906000526020600020906003020160010154136115f1576001600460096000600260038a815481106114c7577f4e487b7100000000000000000000000000000000000000000000000000000000600052603260045260246000fd5b906000526020600020016040516114de9190612afc565b90815260200160405180910390208581548110611524577f4e487b7100000000000000000000000000000000000000000000000000000000600052603260045260246000fd5b906000526020600020906002020160000160009054906101000a900473ffffffffffffffffffffffffffffffffffffffff1673ffffffffffffffffffffffffffffffffffffffff1673ffffffffffffffffffffffffffffffffffffffff16815260200190815260200160002054815481106115c8577f4e487b7100000000000000000000000000000000000000000000000000000000600052603260045260246000fd5b906000526020600020906003020160020160006101000a81548160ff0219169083151502179055505b611a1c565b81600460096000600260038a81548110611639577f4e487b7100000000000000000000000000000000000000000000000000000000600052603260045260246000fd5b906000526020600020016040516116509190612afc565b90815260200160405180910390208581548110611696577f4e487b7100000000000000000000000000000000000000000000000000000000600052603260045260246000fd5b906000526020600020906002020160000160009054906101000a900473ffffffffffffffffffffffffffffffffffffffff1673ffffffffffffffffffffffffffffffffffffffff1673ffffffffffffffffffffffffffffffffffffffff168152602001908152602001600020548154811061173a577f4e487b7100000000000000000000000000000000000000000000000000000000600052603260045260246000fd5b9060005260206000209060030201600101600082825461175a9190612d40565b925050819055506105dc600460096000600260038a815481106117a6577f4e487b7100000000000000000000000000000000000000000000000000000000600052603260045260246000fd5b906000526020600020016040516117bd9190612afc565b90815260200160405180910390208581548110611803577f4e487b7100000000000000000000000000000000000000000000000000000000600052603260045260246000fd5b906000526020600020906002020160000160009054906101000a900473ffffffffffffffffffffffffffffffffffffffff1673ffffffffffffffffffffffffffffffffffffffff1673ffffffffffffffffffffffffffffffffffffffff16815260200190815260200160002054815481106118a7577f4e487b7100000000000000000000000000000000000000000000000000000000600052603260045260246000fd5b9060005260206000209060030201600101541315611a1b576105dc600460096000600260038a81548110611904577f4e487b7100000000000000000000000000000000000000000000000000000000600052603260045260246000fd5b9060005260206000200160405161191b9190612afc565b90815260200160405180910390208581548110611961577f4e487b7100000000000000000000000000000000000000000000000000000000600052603260045260246000fd5b906000526020600020906002020160000160009054906101000a900473ffffffffffffffffffffffffffffffffffffffff1673ffffffffffffffffffffffffffffffffffffffff1673ffffffffffffffffffffffffffffffffffffffff1681526020019081526020016000205481548110611a05577f4e487b7100000000000000000000000000000000000000000000000000000000600052603260045260246000fd5b9060005260206000209060030201600101819055505b5b8080611a279061316a565b91505061109e565b50600260038581548110611a6c577f4e487b7100000000000000000000000000000000000000000000000000000000600052603260045260246000fd5b90600052602060002001604051611a839190612afc565b90815260200160405180910390206000611a9d91906124f8565b5050508080611aab9061316a565b915050610d54565b5060036000611ac2919061251c565b565b60008054906101000a900473ffffffffffffffffffffffffffffffffffffffff1673ffffffffffffffffffffffffffffffffffffffff163373ffffffffffffffffffffffffffffffffffffffff1614611b52576040517f08c379a0000000000000000000000000000000000000000000000000000000008152600401611b4990612c47565b60405180910390fd5b60001515600860008373ffffffffffffffffffffffffffffffffffffffff1673ffffffffffffffffffffffffffffffffffffffff16815260200190815260200160002060009054906101000a900460ff16151514611be5576040517f08c379a0000000000000000000000000000000000000000000000000000000008152600401611bdc90612c07565b60405180910390fd5b6001600860008373ffffffffffffffffffffffffffffffffffffffff1673ffffffffffffffffffffffffffffffffffffffff16815260200190815260200160002060006101000a81548160ff021916908315150217905550600460405180606001604052808373ffffffffffffffffffffffffffffffffffffffff1681526020016103e8815260200160001515815250908060018154018082558091505060019003906000526020600020906003020160009091909190915060008201518160000160006101000a81548173ffffffffffffffffffffffffffffffffffffffff021916908373ffffffffffffffffffffffffffffffffffffffff1602179055506020820151816001015560408201518160020160006101000a81548160ff02191690831515021790555050506001600480549050611d23919061303f565b600960008373ffffffffffffffffffffffffffffffffffffffff1673ffffffffffffffffffffffffffffffffffffffff1681526020019081526020016000208190555050565b60008054906101000a900473ffffffffffffffffffffffffffffffffffffffff1673ffffffffffffffffffffffffffffffffffffffff163373ffffffffffffffffffffffffffffffffffffffff1614611df7576040517f08c379a0000000000000000000000000000000000000000000000000000000008152600401611dee90612c47565b60405180910390fd5b6000600782604051611e099190612ae5565b90815260200160405180910390205414611e58576040517f08c379a0000000000000000000000000000000000000000000000000000000008152600401611e4f90612c27565b60405180910390fd5b600554600782604051611e6b9190612ae5565b908152602001604051809103902081905550600681908060018154018082558091505060019003906000526020600020016000909190919091509080519060200190611eb8929190612472565b50600160056000828254611ecc9190612dd4565b9250508190555050565b60008060008360011515600860008373ffffffffffffffffffffffffffffffffffffffff1673ffffffffffffffffffffffffffffffffffffffff16815260200190815260200160002060009054906101000a900460ff16151514611f6f576040517f08c379a0000000000000000000000000000000000000000000000000000000008152600401611f6690612bc7565b60405180910390fd5b600015156004600960008473ffffffffffffffffffffffffffffffffffffffff1673ffffffffffffffffffffffffffffffffffffffff1681526020019081526020016000205481548110611fec577f4e487b7100000000000000000000000000000000000000000000000000000000600052603260045260246000fd5b906000526020600020906003020160020160009054906101000a900460ff1615151461204d576040517f08c379a000000000000000000000000000000000000000000000000000000000815260040161204490612be7565b60405180910390fd5b60006004600960008873ffffffffffffffffffffffffffffffffffffffff1673ffffffffffffffffffffffffffffffffffffffff16815260200190815260200160002054815481106120c8577f4e487b7100000000000000000000000000000000000000000000000000000000600052603260045260246000fd5b90600052602060002090600302016040518060600160405290816000820160009054906101000a900473ffffffffffffffffffffffffffffffffffffffff1673ffffffffffffffffffffffffffffffffffffffff1673ffffffffffffffffffffffffffffffffffffffff168152602001600182015481526020016002820160009054906101000a900460ff161515151581525050905080600001518160200151826040015194509450945050509193909250565b60008160011515600860008373ffffffffffffffffffffffffffffffffffffffff1673ffffffffffffffffffffffffffffffffffffffff16815260200190815260200160002060009054906101000a900460ff16151514612212576040517f08c379a000000000000000000000000000000000000000000000000000000000815260040161220990612bc7565b60405180910390fd5b600015156004600960008473ffffffffffffffffffffffffffffffffffffffff1673ffffffffffffffffffffffffffffffffffffffff168152602001908152602001600020548154811061228f577f4e487b7100000000000000000000000000000000000000000000000000000000600052603260045260246000fd5b906000526020600020906003020160020160009054906101000a900460ff161515146122f0576040517f08c379a00000000000000000000000000000000000000000000000000000000081526004016122e790612be7565b60405180910390fd5b60011515600860003373ffffffffffffffffffffffffffffffffffffffff1673ffffffffffffffffffffffffffffffffffffffff16815260200190815260200160002060009054906101000a900460ff161515148061239a575060008054906101000a900473ffffffffffffffffffffffffffffffffffffffff1673ffffffffffffffffffffffffffffffffffffffff163373ffffffffffffffffffffffffffffffffffffffff16145b6123d9576040517f08c379a00000000000000000000000000000000000000000000000000000000081526004016123d090612b87565b60405180910390fd5b6004600960008573ffffffffffffffffffffffffffffffffffffffff1673ffffffffffffffffffffffffffffffffffffffff1681526020019081526020016000205481548110612452577f4e487b7100000000000000000000000000000000000000000000000000000000600052603260045260246000fd5b906000526020600020906003020160010154915050919050565b60055481565b82805461247e90613107565b90600052602060002090601f0160209004810192826124a057600085556124e7565b82601f106124b957805160ff19168380011785556124e7565b828001600101855582156124e7579182015b828111156124e65782518255916020019190600101906124cb565b5b5090506124f4919061253d565b5090565b5080546000825560020290600052602060002090810190612519919061255a565b50565b508054600082559060005260206000209081019061253a91906125a0565b50565b5b8082111561255657600081600090555060010161253e565b5090565b5b8082111561259c57600080820160006101000a81549073ffffffffffffffffffffffffffffffffffffffff021916905560018201600090555060020161255b565b5090565b5b808211156125c057600081816125b791906125c4565b506001016125a1565b5090565b5080546125d090613107565b6000825580601f106125e25750612601565b601f016020900490600052602060002090810190612600919061253d565b5b50565b600061261761261284612ca7565b612c82565b9050808382526020820190508285604086028201111561263657600080fd5b60005b85811015612666578161264c888261272c565b845260208401935060408301925050600181019050612639565b5050509392505050565b600061268361267e84612cd3565b612c82565b90508281526020810184848401111561269b57600080fd5b6126a68482856130c5565b509392505050565b6000813590506126bd816133c5565b92915050565b600082601f8301126126d457600080fd5b81356126e4848260208601612604565b91505092915050565b6000813590506126fc816133dc565b92915050565b600082601f83011261271357600080fd5b8135612723848260208601612670565b91505092915050565b60006040828403121561273e57600080fd5b6127486040612c82565b90506000612758848285016126ae565b600083015250602061276c848285016126ed565b60208301525092915050565b600081359050612787816133f3565b92915050565b60006020828403121561279f57600080fd5b60006127ad848285016126ae565b91505092915050565b600080600080608085870312156127cc57600080fd5b600085013567ffffffffffffffff8111156127e657600080fd5b6127f2878288016126c3565b945050602085013567ffffffffffffffff81111561280f57600080fd5b61281b87828801612702565b935050604085013567ffffffffffffffff81111561283857600080fd5b61284487828801612702565b925050606061285587828801612778565b91505092959194509250565b60006020828403121561287357600080fd5b600082013567ffffffffffffffff81111561288d57600080fd5b61289984828501612702565b91505092915050565b6000602082840312156128b457600080fd5b60006128c284828501612778565b91505092915050565b6128d481613073565b82525050565b6128e381613085565b82525050565b6128f281613091565b82525050565b600061290382612d19565b61290d8185612d24565b935061291d8185602086016130d4565b6129268161326f565b840191505092915050565b600061293c82612d19565b6129468185612d35565b93506129568185602086016130d4565b80840191505092915050565b6000815461296f81613107565b6129798186612d35565b9450600182166000811461299457600181146129a5576129d8565b60ff198316865281860193506129d8565b6129ae85612d04565b60005b838110156129d0578154818901526001820191506020810190506129b1565b838801955050505b50505092915050565b60006129ee602083612d24565b91506129f982613280565b602082019050919050565b6000612a11602b83612d24565b9150612a1c826132a9565b604082019050919050565b6000612a34601983612d24565b9150612a3f826132f8565b602082019050919050565b6000612a57601483612d24565b9150612a6282613321565b602082019050919050565b6000612a7a601c83612d24565b9150612a858261334a565b602082019050919050565b6000612a9d601b83612d24565b9150612aa882613373565b602082019050919050565b6000612ac0601483612d24565b9150612acb8261339c565b602082019050919050565b612adf816130bb565b82525050565b6000612af18284612931565b915081905092915050565b6000612b088284612962565b915081905092915050565b6000606082019050612b2860008301866128cb565b612b3560208301856128e9565b612b4260408301846128da565b949350505050565b6000602082019050612b5f60008301846128e9565b92915050565b60006020820190508181036000830152612b7f81846128f8565b905092915050565b60006020820190508181036000830152612ba0816129e1565b9050919050565b60006020820190508181036000830152612bc081612a04565b9050919050565b60006020820190508181036000830152612be081612a27565b9050919050565b60006020820190508181036000830152612c0081612a4a565b9050919050565b60006020820190508181036000830152612c2081612a6d565b9050919050565b60006020820190508181036000830152612c4081612a90565b9050919050565b60006020820190508181036000830152612c6081612ab3565b9050919050565b6000602082019050612c7c6000830184612ad6565b92915050565b6000612c8c612c9d565b9050612c988282613139565b919050565b6000604051905090565b600067ffffffffffffffff821115612cc257612cc1613240565b5b602082029050602081019050919050565b600067ffffffffffffffff821115612cee57612ced613240565b5b612cf78261326f565b9050602081019050919050565b60008190508160005260206000209050919050565b600081519050919050565b600082825260208201905092915050565b600081905092915050565b6000612d4b82613091565b9150612d5683613091565b9250817f7fffffffffffffffffffffffffffffffffffffffffffffffffffffffffffffff03831360008312151615612d9157612d906131b3565b5b817f8000000000000000000000000000000000000000000000000000000000000000038312600083121615612dc957612dc86131b3565b5b828201905092915050565b6000612ddf826130bb565b9150612dea836130bb565b9250827fffffffffffffffffffffffffffffffffffffffffffffffffffffffffffffffff03821115612e1f57612e1e6131b3565b5b828201905092915050565b6000612e3582613091565b9150612e4083613091565b925082612e5057612e4f6131e2565b5b600160000383147f800000000000000000000000000000000000000000000000000000000000000083141615612e8957612e886131b3565b5b828205905092915050565b6000612e9f82613091565b9150612eaa83613091565b9250827f7fffffffffffffffffffffffffffffffffffffffffffffffffffffffffffffff0482116000841360008413161615612ee957612ee86131b3565b5b817f80000000000000000000000000000000000000000000000000000000000000000583126000841260008413161615612f2657612f256131b3565b5b827f80000000000000000000000000000000000000000000000000000000000000000582126000841360008412161615612f6357612f626131b3565b5b827f7fffffffffffffffffffffffffffffffffffffffffffffffffffffffffffffff0582126000841260008412161615612fa057612f9f6131b3565b5b828202905092915050565b6000612fb682613091565b9150612fc183613091565b9250827f800000000000000000000000000000000000000000000000000000000000000001821260008412151615612ffc57612ffb6131b3565b5b827f7fffffffffffffffffffffffffffffffffffffffffffffffffffffffffffffff018213600084121615613034576130336131b3565b5b828203905092915050565b600061304a826130bb565b9150613055836130bb565b925082821015613068576130676131b3565b5b828203905092915050565b600061307e8261309b565b9050919050565b60008115159050919050565b6000819050919050565b600073ffffffffffffffffffffffffffffffffffffffff82169050919050565b6000819050919050565b82818337600083830152505050565b60005b838110156130f25780820151818401526020810190506130d7565b83811115613101576000848401525b50505050565b6000600282049050600182168061311f57607f821691505b6020821081141561313357613132613211565b5b50919050565b6131428261326f565b810181811067ffffffffffffffff8211171561316157613160613240565b5b80604052505050565b6000613175826130bb565b91507fffffffffffffffffffffffffffffffffffffffffffffffffffffffffffffffff8214156131a8576131a76131b3565b5b600182019050919050565b7f4e487b7100000000000000000000000000000000000000000000000000000000600052601160045260246000fd5b7f4e487b7100000000000000000000000000000000000000000000000000000000600052601260045260246000fd5b7f4e487b7100000000000000000000000000000000000000000000000000000000600052602260045260246000fd5b7f4e487b7100000000000000000000000000000000000000000000000000000000600052604160045260246000fd5b6000601f19601f8301169050919050565b7f53656e646572206973206e6f7420612076616c6964204964656e746974792121600082015250565b7f4d657373616765206e6f7420766572696669656420627920636f6e6365726e6560008201527f6420617574686f72697479000000000000000000000000000000000000000000602082015250565b7f56656869636c65206e6f74205265676973746572656421212100000000000000600082015250565b7f56656869636c65206973205265766f6b65642121000000000000000000000000600082015250565b7f56656869636c6520416c72656164792052656769737465726564212100000000600082015250565b7f4d65737361676520416c726561647920696e2044617461426173650000000000600082015250565b7f4e6f74205472616e706f72742041646d696e2121000000000000000000000000600082015250565b6133ce81613073565b81146133d957600080fd5b50565b6133e581613091565b81146133f057600080fd5b50565b6133fc816130bb565b811461340757600080fd5b5056fea264697066735822122037613d14368f0ff77af60c5f5bf95fa0dc00b66a318755258ba21763b0dad52764736f6c63430008040033",
  "linkReferences": {},
  "deployedLinkReferences": {}
}